{
  "_format": "hh-sol-artifact-1",
  "contractName": "Vault",
  "sourceName": "contracts/Vault.sol",
  "abi": [
    {
      "inputs": [
        {
          "internalType": "address",
          "name": "_usdc",
          "type": "address"
        },
        {
          "internalType": "address",
          "name": "_admin",
          "type": "address"
        },
        {
          "internalType": "address",
          "name": "_chainlinkManager",
          "type": "address"
        }
      ],
      "stateMutability": "nonpayable",
      "type": "constructor"
    },
    {
      "inputs": [],
      "name": "AlreadyStarted",
      "type": "error"
    },
    {
      "inputs": [
        {
          "internalType": "enum Utils.Asset",
          "name": "",
          "type": "uint8"
        }
      ],
      "name": "CircuitBreakerActivatedForAsset",
      "type": "error"
    },
    {
      "inputs": [],
      "name": "DivisionByZero",
      "type": "error"
    },
    {
      "inputs": [],
      "name": "FeeReceiverNotSet",
      "type": "error"
    },
    {
      "inputs": [],
      "name": "InSufficientGlobalBufferAmount",
      "type": "error"
    },
    {
      "inputs": [],
      "name": "InsufficientFundForPayout",
      "type": "error"
    },
    {
      "inputs": [],
      "name": "InsufficientTokenAmountSpecified",
      "type": "error"
    },
    {
      "inputs": [],
      "name": "InsufficientVaultDebt",
      "type": "error"
    },
    {
      "inputs": [],
      "name": "InvalidAmount",
      "type": "error"
    },
    {
      "inputs": [],
      "name": "InvalidAssetTypeUsed",
      "type": "error"
    },
    {
      "inputs": [],
      "name": "InvalidNumberOfShares",
      "type": "error"
    },
    {
      "inputs": [],
      "name": "InvalidPrice",
      "type": "error"
    },
    {
      "inputs": [],
      "name": "InvalidVaultID",
      "type": "error"
    },
    {
      "inputs": [],
      "name": "MarketNotOpen",
      "type": "error"
    },
    {
      "inputs": [],
      "name": "NotAdmin",
      "type": "error"
    },
    {
      "inputs": [],
      "name": "NotPerpEngine",
      "type": "error"
    },
    {
      "inputs": [],
      "name": "NotStarted",
      "type": "error"
    },
    {
      "inputs": [],
      "name": "OnlyRouter",
      "type": "error"
    },
    {
      "inputs": [],
      "name": "Paused",
      "type": "error"
    },
    {
      "inputs": [],
      "name": "PossibleAccountingErrorOne",
      "type": "error"
    },
    {
      "inputs": [],
      "name": "PossibleAccountingErrorThree",
      "type": "error"
    },
    {
      "inputs": [],
      "name": "PossibleAccountingErrorTwo",
      "type": "error"
    },
    {
      "inputs": [],
      "name": "ReentrancyGuardReentrantCall",
      "type": "error"
    },
    {
      "inputs": [],
      "name": "StocksToReddemLowerThanUserBalance",
      "type": "error"
    },
    {
      "inputs": [],
      "name": "TransferofFundsFailed",
      "type": "error"
    },
    {
      "inputs": [],
      "name": "VaultAlreadyPaidOut",
      "type": "error"
    },
    {
      "anonymous": false,
      "inputs": [
        {
          "indexed": true,
          "internalType": "enum Utils.Asset",
          "name": "asset",
          "type": "uint8"
        },
        {
          "indexed": false,
          "internalType": "int256",
          "name": "delta",
          "type": "int256"
        },
        {
          "indexed": false,
          "internalType": "uint256",
          "name": "date",
          "type": "uint256"
        }
      ],
      "name": "FundingSettled",
      "type": "event"
    },
    {
      "anonymous": false,
      "inputs": [
        {
          "indexed": true,
          "internalType": "address",
          "name": "user",
          "type": "address"
        },
        {
          "indexed": false,
          "internalType": "uint256",
          "name": "amountUSDC",
          "type": "uint256"
        }
      ],
      "name": "MintFeeCollected",
      "type": "event"
    },
    {
      "anonymous": false,
      "inputs": [
        {
          "indexed": false,
          "internalType": "address",
          "name": "newPerp",
          "type": "address"
        }
      ],
      "name": "PerpEngineUpdated",
      "type": "event"
    },
    {
      "anonymous": false,
      "inputs": [
        {
          "indexed": true,
          "internalType": "address",
          "name": "trader",
          "type": "address"
        },
        {
          "indexed": false,
          "internalType": "uint256",
          "name": "burnedAmount",
          "type": "uint256"
        },
        {
          "indexed": false,
          "internalType": "uint256",
          "name": "amountRefunded",
          "type": "uint256"
        },
        {
          "indexed": false,
          "internalType": "uint256",
          "name": "redemtionFee",
          "type": "uint256"
        },
        {
          "indexed": false,
          "internalType": "uint256",
          "name": "date",
          "type": "uint256"
        },
        {
          "indexed": false,
          "internalType": "enum Utils.Asset",
          "name": "assetType",
          "type": "uint8"
        }
      ],
      "name": "PositionClosed",
      "type": "event"
    },
    {
      "anonymous": false,
      "inputs": [
        {
          "indexed": true,
          "internalType": "address",
          "name": "trader",
          "type": "address"
        },
        {
          "indexed": false,
          "internalType": "uint256",
          "name": "mintedAmount",
          "type": "uint256"
        },
        {
          "indexed": false,
          "internalType": "uint256",
          "name": "bufferCollateral",
          "type": "uint256"
        },
        {
          "indexed": false,
          "internalType": "uint256",
          "name": "hedgedCollateral",
          "type": "uint256"
        },
        {
          "indexed": false,
          "internalType": "uint256",
          "name": "entryPrice",
          "type": "uint256"
        },
        {
          "indexed": true,
          "internalType": "uint256",
          "name": "positionId",
          "type": "uint256"
        },
        {
          "indexed": false,
          "internalType": "uint256",
          "name": "date",
          "type": "uint256"
        },
        {
          "indexed": false,
          "internalType": "enum Utils.Asset",
          "name": "assetType",
          "type": "uint8"
        }
      ],
      "name": "PositionCreated",
      "type": "event"
    },
    {
      "anonymous": false,
      "inputs": [
        {
          "indexed": true,
          "internalType": "address",
          "name": "user",
          "type": "address"
        },
        {
          "indexed": false,
          "internalType": "uint256",
          "name": "amountUSDC",
          "type": "uint256"
        }
      ],
      "name": "RedemptionFeeCollected",
      "type": "event"
    },
    {
      "anonymous": false,
      "inputs": [
        {
          "indexed": true,
          "internalType": "address",
          "name": "trader",
          "type": "address"
        },
        {
          "indexed": false,
          "internalType": "uint256",
          "name": "amountUSDC",
          "type": "uint256"
        },
        {
          "indexed": false,
          "internalType": "enum Utils.Asset",
          "name": "assetType",
          "type": "uint8"
        }
      ],
      "name": "UserWithdrawal",
      "type": "event"
    },
    {
      "anonymous": false,
      "inputs": [
        {
          "indexed": true,
          "internalType": "address",
          "name": "trader",
          "type": "address"
        },
        {
          "indexed": false,
          "internalType": "uint256",
          "name": "positionId",
          "type": "uint256"
        },
        {
          "indexed": false,
          "internalType": "enum Utils.Asset",
          "name": "assetType",
          "type": "uint8"
        },
        {
          "indexed": false,
          "internalType": "uint256",
          "name": "burnedAmount",
          "type": "uint256"
        },
        {
          "indexed": false,
          "internalType": "uint256",
          "name": "amountRefunded",
          "type": "uint256"
        },
        {
          "indexed": false,
          "internalType": "uint256",
          "name": "redemtionFee",
          "type": "uint256"
        },
        {
          "indexed": false,
          "internalType": "uint256",
          "name": "date",
          "type": "uint256"
        }
      ],
      "name": "VaultClosed",
      "type": "event"
    },
    {
      "anonymous": false,
      "inputs": [
        {
          "indexed": true,
          "internalType": "address",
          "name": "trader",
          "type": "address"
        },
        {
          "indexed": false,
          "internalType": "uint256",
          "name": "positionId",
          "type": "uint256"
        },
        {
          "indexed": false,
          "internalType": "enum Utils.Asset",
          "name": "assetType",
          "type": "uint8"
        },
        {
          "indexed": false,
          "internalType": "uint256",
          "name": "mintedAmount",
          "type": "uint256"
        },
        {
          "indexed": false,
          "internalType": "uint256",
          "name": "bufferCollateral",
          "type": "uint256"
        },
        {
          "indexed": false,
          "internalType": "uint256",
          "name": "hedgedCollateral",
          "type": "uint256"
        },
        {
          "indexed": false,
          "internalType": "uint256",
          "name": "entryPrice",
          "type": "uint256"
        },
        {
          "indexed": false,
          "internalType": "uint256",
          "name": "date",
          "type": "uint256"
        }
      ],
      "name": "VaultOpened",
      "type": "event"
    },
    {
      "inputs": [],
      "name": "CHAINLINK_PRECISION",
      "outputs": [
        {
          "internalType": "uint256",
          "name": "",
          "type": "uint256"
        }
      ],
      "stateMutability": "view",
      "type": "function"
    },
    {
      "inputs": [],
      "name": "PERCENTAGE_COLLATERAL",
      "outputs": [
        {
          "internalType": "uint256",
          "name": "",
          "type": "uint256"
        }
      ],
      "stateMutability": "view",
      "type": "function"
    },
    {
      "inputs": [],
      "name": "PRECISION",
      "outputs": [
        {
          "internalType": "uint256",
          "name": "",
          "type": "uint256"
        }
      ],
      "stateMutability": "view",
      "type": "function"
    },
    {
      "inputs": [],
      "name": "USDC_PRECISION",
      "outputs": [
        {
          "internalType": "uint256",
          "name": "",
          "type": "uint256"
        }
      ],
      "stateMutability": "view",
      "type": "function"
    },
    {
      "inputs": [],
      "name": "admin",
      "outputs": [
        {
          "internalType": "address",
          "name": "",
          "type": "address"
        }
      ],
      "stateMutability": "view",
      "type": "function"
    },
    {
      "inputs": [],
      "name": "chainlinkManager",
      "outputs": [
        {
          "internalType": "contract ChainlinkManager",
          "name": "",
          "type": "address"
        }
      ],
      "stateMutability": "view",
      "type": "function"
    },
    {
      "inputs": [
        {
          "internalType": "address",
          "name": "token",
          "type": "address"
        }
      ],
      "name": "emergencyWithdraw",
      "outputs": [],
      "stateMutability": "nonpayable",
      "type": "function"
    },
    {
      "inputs": [],
      "name": "feeReceiver",
      "outputs": [
        {
          "internalType": "address",
          "name": "",
          "type": "address"
        }
      ],
      "stateMutability": "view",
      "type": "function"
    },
    {
      "inputs": [
        {
          "internalType": "enum Utils.Asset",
          "name": "asset",
          "type": "uint8"
        }
      ],
      "name": "getScaledChainlinkPrice",
      "outputs": [
        {
          "internalType": "uint256",
          "name": "",
          "type": "uint256"
        }
      ],
      "stateMutability": "view",
      "type": "function"
    },
    {
      "inputs": [
        {
          "internalType": "enum Utils.Asset",
          "name": "asset",
          "type": "uint8"
        }
      ],
      "name": "getScaledTwapPrice",
      "outputs": [
        {
          "internalType": "uint256",
          "name": "",
          "type": "uint256"
        }
      ],
      "stateMutability": "view",
      "type": "function"
    },
    {
      "inputs": [
        {
          "internalType": "enum Utils.Asset",
          "name": "",
          "type": "uint8"
        }
      ],
      "name": "globalBufferUSDC",
      "outputs": [
        {
          "internalType": "uint256",
          "name": "",
          "type": "uint256"
        }
      ],
      "stateMutability": "view",
      "type": "function"
    },
    {
      "inputs": [],
      "name": "isStarted",
      "outputs": [
        {
          "internalType": "bool",
          "name": "",
          "type": "bool"
        }
      ],
      "stateMutability": "view",
      "type": "function"
    },
    {
      "inputs": [
        {
          "internalType": "enum Utils.Asset",
          "name": "assetType",
          "type": "uint8"
        },
        {
          "internalType": "uint256",
          "name": "numofShares",
          "type": "uint256"
        }
      ],
      "name": "openPosition",
      "outputs": [],
      "stateMutability": "nonpayable",
      "type": "function"
    },
    {
      "inputs": [
        {
          "internalType": "address",
          "name": "trader",
          "type": "address"
        },
        {
          "internalType": "enum Utils.Asset",
          "name": "assetType",
          "type": "uint8"
        },
        {
          "internalType": "uint256",
          "name": "numofShares",
          "type": "uint256"
        },
        {
          "internalType": "uint256",
          "name": "notionalUSDC18",
          "type": "uint256"
        },
        {
          "internalType": "uint256",
          "name": "mintFeeUSDC",
          "type": "uint256"
        },
        {
          "internalType": "uint256",
          "name": "usdcPaid",
          "type": "uint256"
        },
        {
          "internalType": "uint256",
          "name": "assetPrice",
          "type": "uint256"
        }
      ],
      "name": "openPositionViaCCIP",
      "outputs": [],
      "stateMutability": "nonpayable",
      "type": "function"
    },
    {
      "inputs": [],
      "name": "perpEngine",
      "outputs": [
        {
          "internalType": "address",
          "name": "",
          "type": "address"
        }
      ],
      "stateMutability": "view",
      "type": "function"
    },
    {
      "inputs": [],
      "name": "perpEngineContract",
      "outputs": [
        {
          "internalType": "contract PerpEngine",
          "name": "",
          "type": "address"
        }
      ],
      "stateMutability": "view",
      "type": "function"
    },
    {
      "inputs": [
        {
          "internalType": "enum Utils.Asset",
          "name": "assetType",
          "type": "uint8"
        },
        {
          "internalType": "uint256",
          "name": "stockToRedeem",
          "type": "uint256"
        }
      ],
      "name": "redeemStock",
      "outputs": [],
      "stateMutability": "nonpayable",
      "type": "function"
    },
    {
      "inputs": [
        {
          "internalType": "uint256",
          "name": "vaultID",
          "type": "uint256"
        },
        {
          "internalType": "uint256",
          "name": "portionToRedeem",
          "type": "uint256"
        }
      ],
      "name": "redeemVault",
      "outputs": [],
      "stateMutability": "nonpayable",
      "type": "function"
    },
    {
      "inputs": [
        {
          "internalType": "address",
          "name": "_receiver",
          "type": "address"
        }
      ],
      "name": "setFeeReceiver",
      "outputs": [],
      "stateMutability": "nonpayable",
      "type": "function"
    },
    {
      "inputs": [
        {
          "internalType": "address",
          "name": "_perp",
          "type": "address"
        }
      ],
      "name": "setPerpEngine",
      "outputs": [],
      "stateMutability": "nonpayable",
      "type": "function"
    },
    {
      "inputs": [
        {
          "internalType": "address",
          "name": "_receiverContractAddress",
          "type": "address"
        }
      ],
      "name": "setReceiverContract",
      "outputs": [],
      "stateMutability": "nonpayable",
      "type": "function"
    },
    {
      "inputs": [
        {
          "internalType": "address",
          "name": "_sTSLA",
          "type": "address"
        },
        {
          "internalType": "address",
          "name": "_sAPPL",
          "type": "address"
        },
        {
          "internalType": "address",
          "name": "_perpEngine",
          "type": "address"
        }
      ],
      "name": "startUpProtocol",
      "outputs": [],
      "stateMutability": "nonpayable",
      "type": "function"
    },
    {
      "inputs": [
        {
          "internalType": "enum Utils.Asset",
          "name": "asset",
          "type": "uint8"
        },
        {
          "internalType": "int256",
          "name": "fundingFee",
          "type": "int256"
        }
      ],
      "name": "syncFundingPnL",
      "outputs": [],
      "stateMutability": "nonpayable",
      "type": "function"
    },
    {
      "inputs": [
        {
          "internalType": "enum Utils.Asset",
          "name": "",
          "type": "uint8"
        }
      ],
      "name": "totalUserBufferUSDC",
      "outputs": [
        {
          "internalType": "uint256",
          "name": "",
          "type": "uint256"
        }
      ],
      "stateMutability": "view",
      "type": "function"
    },
    {
      "inputs": [
        {
          "internalType": "enum Utils.Asset",
          "name": "",
          "type": "uint8"
        }
      ],
      "name": "totalVaultDebt",
      "outputs": [
        {
          "internalType": "uint256",
          "name": "",
          "type": "uint256"
        }
      ],
      "stateMutability": "view",
      "type": "function"
    },
    {
      "inputs": [
        {
          "internalType": "address",
          "name": "",
          "type": "address"
        }
      ],
      "name": "userPositionCount",
      "outputs": [
        {
          "internalType": "uint256",
          "name": "",
          "type": "uint256"
        }
      ],
      "stateMutability": "view",
      "type": "function"
    },
    {
      "inputs": [
        {
          "internalType": "address",
          "name": "",
          "type": "address"
        },
        {
          "internalType": "uint256",
          "name": "",
          "type": "uint256"
        }
      ],
      "name": "userPositions",
      "outputs": [
        {
          "internalType": "address",
          "name": "trader",
          "type": "address"
        },
        {
          "internalType": "uint256",
          "name": "mintedAmount",
          "type": "uint256"
        },
        {
          "internalType": "uint256",
          "name": "bufferCollateral",
          "type": "uint256"
        },
        {
          "internalType": "uint256",
          "name": "hedgedCollateral",
          "type": "uint256"
        },
        {
          "internalType": "uint256",
          "name": "entryPrice",
          "type": "uint256"
        },
        {
          "internalType": "uint256",
          "name": "positionIndex",
          "type": "uint256"
        },
        {
          "internalType": "uint256",
          "name": "timestamp",
          "type": "uint256"
        },
        {
          "internalType": "enum Utils.Asset",
          "name": "assetType",
          "type": "uint8"
        },
        {
          "internalType": "bool",
          "name": "paidOut",
          "type": "bool"
        },
        {
          "internalType": "bool",
          "name": "isActive",
          "type": "bool"
        }
      ],
      "stateMutability": "view",
      "type": "function"
    }
  ],
  "bytecode": "0x60803460a857601f6127e538819003918201601f19168301916001600160401b0383118484101760ad5780849260609460405283398101031260a85760428160c3565b6056604060506020850160c3565b930160c3565b60016000819055600480546001600160a01b03199081166001600160a01b0394851617909155600780548216948416949094179093558054909216921691909117905560405161270e90816100d78239f35b600080fd5b634e487b7160e01b600052604160045260246000fd5b51906001600160a01b038216820360a85756fe6080604052600436101561001257600080fd5b6000803560e01c806302c62347146119be57806307a924f1146114fb5780630918eb14146114c25780631734f0d41461149f57806337214ad01461141957806340611b47146113f057806348ba4d2b146113c7578063544736e6146113a15780635527d9eb146113775780635e1b4d99146112b75780636ff1c9bc146111c85780638954e50c146111965780639837ecb41461116c578063aaf5eb6814611149578063b0c8805f146109df578063b3f00674146109b6578063b619daf714610906578063c2ce1d56146107d0578063d621fca7146107b2578063e2e7bc7a14610670578063e35db39914610647578063ebda477d14610628578063efdcd97414610590578063f7997f2414610566578063f851a4401461053d578063fb50b50b1461050a5763fc5482691461014657600080fd5b3461050757610154366120a2565b9061015d61241f565b60ff60035460a01c16156104f85761017481612441565b6002546001600160a01b0316156104e95761018f8282612505565b61019882612310565b6101a1836123cf565b60405191630dcb752d60e41b83526004830152602482015260208160448173__$c6c5f4599f88e7253ab6b4c9dc3636c36f$__5af49081156104de5785916104aa575b506101f8670de0b6b3a76400009183612276565b0490808211610454578181111561044c57816102139161229f565b6007546040516370a0823160e01b81523060048201526001600160a01b0390911690602081602481855afa80156104415783918891610407575b50106103f8576020604051809263a9059cbb60e01b82528189816102758833600484016121d4565b03925af19081156103bf5786916103d9575b50156103ca5760075460025460405163a9059cbb60e01b81529493929160209186916001600160a01b039081169183918b9183916102cb918a9116600484016121d4565b03925af19384156103bf5761036594610392575b506040518281527fcf74743fee8ef45d0f775d63c2e7129e1aec29d2ce0222e2d979104c2921048160203392a260405181815261031f60208201856120d7565b7f88896a7021702e38c19f480b3410d1d911bf7ff5bc75105bbdb8d4a3f7c56cea60403392a26040519485526020850152604084015242606084015260808301906120d7565b7f9ddb426073692493031321779ba6a652bbd3223988288b68a35cda043f30bb2160a03392a26001815580f35b6103b39060203d6020116103b8575b6103ab8183612178565b8101906121bc565b6102df565b503d6103a1565b6040513d88823e3d90fd5b63ce2c43c760e01b8552600485fd5b6103f2915060203d6020116103b8576103ab8183612178565b38610287565b63903a6c4960e01b8652600486fd5b9150506020813d602011610439575b8161042360209383612178565b81010312610434578290513861024d565b600080fd5b3d9150610416565b6040513d89823e3d90fd5b905083610213565b60405162461bcd60e51b815260206004820152602860248201527f526564656d7074696f6e20666565206578636565647320726564656d7074696f6044820152671b88185b5bdd5b9d60c21b6064820152608490fd5b90506020813d6020116104d6575b816104c560209383612178565b8101031261043457516101f86101e4565b3d91506104b8565b6040513d87823e3d90fd5b630b37568b60e01b8352600483fd5b636f312cbd60e01b8352600483fd5b80fd5b5034610507576020366003190112610507576004359060028210156105075760206105348361212c565b54604051908152f35b50346105075780600319360112610507576001546040516001600160a01b039091168152602090f35b50346105075760203660031901126105075760043590600282101561050757602061053483612113565b5034610507576020366003190112610507576105aa6120c1565b6001546001600160a01b03163303610619576001600160a01b031680156105e257600280546001600160a01b03191691909117905580f35b60405162461bcd60e51b815260206004820152600f60248201526e496e76616c6964206164647265737360881b6044820152606490fd5b637bfa4b9f60e01b8252600482fd5b503461050757806003193601126105075760206040516305f5e1008152f35b50346105075780600319360112610507576005546040516001600160a01b039091168152602090f35b50346105075760403660031901126105075760043560028110156107ae57600354602435906001600160a01b0316330361079f578282151580610792575b610783578382131561071c576106c38361212c565b6106ce8382546122ac565b90555b6107085760407f44fab53963bfbf7a6098b90371183aaa38b26104f927afff436511e271da14b7918151908152426020820152a280f35b634e487b7160e01b83526021600452602483fd5b838212156106d157600160ff1b821461076f578184038061073c8561212c565b54111561075e5761075761074f8561212c565b91825461229f565b90556106d1565b50836107698461212c565b556106d1565b634e487b7160e01b84526011600452602484fd5b63663dd4ed60e11b8452600484fd5b50508260018314156106ae565b636dc842c760e11b8352600483fd5b5080fd5b50346105075780600319360112610507576020604051620f42408152f35b5034610507576060366003190112610507576107ea6120c1565b6024356001600160a01b03811690819003610902576044356001600160a01b03811692908390036108fe576001546001600160a01b031633036108ef5760035460ff8160a01c166108e05760ff60a01b1916600160a01b17600355600880546001600160a01b03199081166001600160a01b039384161790915560098054821690931790925560058054909216831790915560075460405163095ea7b360e01b815260048101939093526000196024840152602091839160449183918791165af180156108d5576108b9575080f35b6108d19060203d6020116103b8576103ab8183612178565b5080f35b6040513d84823e3d90fd5b631fbde44560e01b8552600485fd5b637bfa4b9f60e01b8452600484fd5b8380fd5b8280fd5b5034610507576020366003190112610507576109206120c1565b6001546001600160a01b03163303610619576001600160a01b0316801561098257600580546001600160a01b031916821790556040519081527f8a64d92abd11c5d3e10159842d11181b5407bfb5f34b58d52d7d7ddcaab64f1790602090a180f35b60405162461bcd60e51b815260206004820152600c60248201526b0696e76616c696420706572760a41b6044820152606490fd5b50346105075780600319360112610507576002546040516001600160a01b039091168152602090f35b50346105075760403660031901126105075760243590600435610a0061241f565b60ff60035460a01c161561113a57338252600b602052604082205481101561112b57821561111c576002546001600160a01b03161561110d57338252600a602052604082208183526020526040822060405193610a5c85612145565b60018060a01b03825416855260018201918254602087019381855260028301978854806040830152600385018054948560608501526004870154608085015260076005880197885460a0870152600681015460c0870152019586549960ff8b169a86610acd60e08e99019d8e6122b9565b60ff610100820192818160081c161515845260101c16151561012082015260018060a01b03905116156110fe578151159081156110f3575b506110e4575189116110935789519c60028e101561107f579b9c9a9b8d9b611068576008546024906020906001600160a01b03165b6040516370a0823160e01b815233600482015292839182906001600160a01b03165afa9c8d1561105c579c611028575b50670de0b6b3a76400008a028a8104670de0b6b3a7640000036110145783610b9191612256565b94670de0b6b3a7640000610bb181610ba98985612276565b049785612276565b0493868210611004578b8110610ff457848410610fe45786610beb95949392610bdd8e610be49461229f565b8b5561229f565b905561229f565b9055610bf6826120fa565b5415610fd557610c22610c12610c0b8461212c565b5483612276565b610c1b846120fa565b5490612256565b9182610c2d8261212c565b5410610fc3575b81610c3e826120fa565b5410610fac575b610c4e9061212c565b610c5983825461229f565b9055610c6b61074f60ff8654166120fa565b90558154610fa5576001975b89978611610f75575b5085516002811015610f6157610c9590612310565b95516002811015610f615790610cac8a93926123cf565b60405197630dcb752d60e41b89526004890152602488015260208760448173__$c6c5f4599f88e7253ab6b4c9dc3636c36f$__5af48015610f565789978491610f12575b5090670de0b6b3a7640000610d11610d1893610d0c848d6122ac565b612276565b04986122ac565b87811115610f075787610d2a9161229f565b955b610ef1575b505060075460405163a9059cbb60e01b81529060209082906001600160a01b0316818b81610d638b33600484016121d4565b03925af1908115610eb8578891610ed2575b5015610ec35760075460025460405163a9059cbb60e01b8152929160209184916001600160a01b039081169183918d918391610db7918e9116600484016121d4565b03925af1918215610eb85760ff92610e9b575b506040518681527fcf74743fee8ef45d0f775d63c2e7129e1aec29d2ce0222e2d979104c2921048160203392a2541694604051848152610e0d60208201886120d7565b7f88896a7021702e38c19f480b3410d1d911bf7ff5bc75105bbdb8d4a3f7c56cea60403392a2610e40575b856001815580f35b610e5690549460405195865260208601906120d7565b6040840152606083015260808201524260a08201527f6ff88e09aeb15e8066532d3ad9075e5c701afdd1ac9048dd94e93f898298bbbf60c03392a23880808080610e38565b610eb39060203d6020116103b8576103ab8183612178565b610dca565b6040513d8a823e3d90fd5b63ce2c43c760e01b8752600487fd5b610eeb915060203d6020116103b8576103ab8183612178565b38610d75565b825462ffff001916610100178355558638610d31565b909650958195610d2c565b97505091506020863d602011610f4e575b81610f3060209383612178565b81010312610434579451879589929091670de0b6b3a7640000610cf0565b3d9150610f23565b6040513d85823e3d90fd5b634e487b7160e01b8a52602160045260248afd5b909650338952600a60205260408920908952602052610f9e8460ff600760408c20015416612505565b9538610c80565b8897610c77565b9050610c4e610fba826120fa565b54919050610c45565b9150610fce8261212c565b5491610c34565b6323d359a360e01b8a5260048afd5b50630977cde360e11b8f5260048ffd5b50639244327760e01b8f5260048ffd5b50634b60e55760e11b8f5260048ffd5b634e487b7160e01b8f52601160045260248ffd5b909b506020813d602011611054575b8161104460209383612178565b8101031261043457519a38610b6a565b3d9150611037565b604051903d90823e3d90fd5b6009546024906020906001600160a01b0316610b3a565b634e487b7160e01b8d52602160045260248dfd5b60405162461bcd60e51b815260206004820152602360248201527f52656465656d20616d6f756e742065786365656473206d696e74656420616d6f6044820152621d5b9d60ea1b6064820152608490fd5b6374c60da760e11b8d5260048dfd5b905051151538610b05565b6362e2ae4360e11b8e5260048efd5b630b37568b60e01b8252600482fd5b630ecbf12f60e31b8252600482fd5b6362e2ae4360e11b8252600482fd5b636f312cbd60e01b8252600482fd5b50346105075780600319360112610507576020604051670de0b6b3a76400008152f35b503461050757602036600319011261050757600435906002821015610507576020610534836120fa565b5034610507576020366003190112610507576004359060028210156105075760206111c0836123cf565b604051908152f35b5034610507576020366003190112610507576111e26120c1565b6001546001600160a01b031690338290036112a8576040516370a0823160e01b81523060048201526001600160a01b039190911691602082602481865afa91821561129d578492611267575b5060405163a9059cbb60e01b815292602092849283918791839161125591600484016121d4565b03925af180156108d5576108b9575080f35b91506020823d602011611295575b8161128260209383612178565b810103126104345790519061125561122e565b3d9150611275565b6040513d86823e3d90fd5b637bfa4b9f60e01b8352600483fd5b503461050757604036600319011261050757610140906040906001600160a01b036112e06120c1565b168152600a60205281812060243582526020522060ff60018060a01b0382541691600181015490600281015460038201546004830154906005840154926007600686015495015495604051988952602089015260408801526060870152608086015260a085015260c084015261135b60e084018383166120d7565b818160081c16151561010084015260101c161515610120820152f35b5034610507576020366003190112610507576004359060028210156105075760206111c083612310565b5034610507578060031936011261050757602060ff60035460a01c166040519015158152f35b50346105075780600319360112610507576003546040516001600160a01b039091168152602090f35b50346105075780600319360112610507576004546040516001600160a01b039091168152602090f35b5034610507576020366003190112610507576114336120c1565b6001546001600160a01b03163303610619576001600160a01b0316801561146b57600680546001600160a01b03191691909117905580f35b60405162461bcd60e51b815260206004820152600c60248201526b7a65726f206164647265737360a01b6044820152606490fd5b50346105075780600319360112610507576020604051670f43fc2c04ee00008152f35b5034610507576020366003190112610507576020906040906001600160a01b036114ea6120c1565b168152600b83522054604051908152f35b50346105075760e0366003190112610507576115156120c1565b6024359060028210156109025760443560843560c43561153361241f565b61153c85612441565b6002546001600160a01b0316156119af578461199d576008546001600160a01b0316945b64e8d4a510006064350491606e830292808404606e148115171561198957600a90046064819404906115919161229f565b9361159b836120fa565b848154906115a8916122ac565b90556115b383612113565b868154906115c0916122ac565b90556115cb8361212c565b848154906115d8916122ac565b9055600160a01b60019003871696878a52600b60205260408a20549884898b8d6040519061160582612145565b838252602082018d8152604083018c81528d6060850190815260808501918c835260a086019387855260c087019542875260e088019a611645908c6122b9565b610100880198818a5261012089019a60018c528252600a602052604082209082526020526040902096600160a01b6001900390600160a01b6001900390511616600160a01b600190031988541617875551600187015551600286015551600385015551600484015551600583015551600682015560070192516002811015611975578354915161ffff1990921660ff9091161790151560081b61ff00161782558c94939291611708915b51815462ff0000191690151560101b62ff000016179055565b898452600b6020526040842061171e81546122c5565b90556007546040516323b872dd60e01b81529060209082906001600160a01b031681888161175360a43530336004850161219a565b03925af180156104de57611958575b506001600160a01b0316803b156108fe5788849161179793836040518096819582946340c10f1960e01b8452600484016121d4565b03925af1908115610f56578391611943575b505060075460025460405163a9059cbb60e01b81529160209183916001600160a01b03908116918391889183916117e6918a9116600484016121d4565b03925af18015610f5657611926575b50600554604051635711f28560e11b81529260209184916044918391906001600160a01b0316611828600484018b6120d7565b8b60248401525af191821561191b5788926118d2575b50916000805160206126b983398151915296917fd2b7c9cdd8f0b876462485c766dac30078e9ef6f76ce1e57ca92c7bd553bcf1f60206118c89695604051908152a2877f47b4a0a7043c0299d7152bd396be0491058589bd61f3bf87e50e82c5986264d7604051806118b78d868c8c8a8c4295886121ef565b0390a2604051958695429387612225565b0390a36001815580f35b96915092916020873d602011611913575b816118f060209383612178565b8101031261043457909550909186906000805160206126b983398151915261183e565b3d91506118e3565b6040513d8c823e3d90fd5b61193e9060203d6020116103b8576103ab8183612178565b6117f5565b8161194d91612178565b6107ae5781386117a9565b6119709060203d6020116103b8576103ab8183612178565b611762565b634e487b7160e01b8f52602160045260248ffd5b634e487b7160e01b89526011600452602489fd5b6009546001600160a01b031694611560565b630b37568b60e01b8652600486fd5b5034610507576119cd366120a2565b6119d561241f565b8015612093576119e482612441565b6002546001600160a01b0316156104e95760028210156107085781612081576008546001600160a01b0316915b611a1a81612310565b611a23826123cf565b73__$c6c5f4599f88e7253ab6b4c9dc3636c36f$__926040519163f6775f9760e01b83526004830152826024830152602082604481875af4918215610441578792612049575b50670de0b6b3a7640000611a7d8685612276565b0494604051635ada55d560e01b8152866004820152602081602481895af4908115611ec9578991612017575b50606e8102818104606e148215171561200357670de0b6b3a7640000611ae3600a606460209404940499611add8b8661229f565b97612276565b04602460405180998193635ada55d560e01b835260048301525af4958615611ec9578996611fcd575b5085611b17916122ac565b96611b21836120fa565b611b2c8882546122ac565b9055611b3783612113565b611b428382546122ac565b9055611b4d8361212c565b611b588882546122ac565b9055338952600b60205260408920549783898b6007604051611b7981612145565b338152602081018881528d604083019081528c606084018d81526080850191825260a085019288845260c0860194428652611bb860e088019b8c6122b9565b6040610100880199808b5261012089019b60018d52338252600a602052828220908252602052209660018060a01b039060018060a01b039051161660018060a01b03198854161787555160018701555160028601555160038501555160048401555160058301555160068201550192516002811015611fb9578354915161ffff1990921660ff9091161790151560081b61ff0016178255611c5991906116ef565b338a52600b60205260408a20611c6f81546122c5565b90556007546040516370a0823160e01b81523360048201526001600160a01b039091169190602081602481865afa8015611fae5782918d91611f73575b5010611f64578a91829182604051611ce981611cdb60208201956323b872dd60e01b875230336024850161219a565b03601f198101835282612178565b51925af13d15611f5c573d9067ffffffffffffffff8211611f485760405191611d1c601f8201601f191660200184612178565b82523d8b602084013e5b15908115611f18575b50611f09576001600160a01b0316803b15611f05578860405180926340c10f1960e01b8252818381611d658833600484016121d4565b03925af18015611ec957611ef1575b5060075460025460405163a9059cbb60e01b81529160209183916001600160a01b039081169183918e918391611db0918e9116600484016121d4565b03925af18015611ec957611ed4575b50600554604051635711f28560e11b815290602090829060449082908d906001600160a01b0316611df3600484018a6120d7565b8960248401525af18015611ec957611e93575b50906118c8916000805160206126b9833981519152956040519081527fd2b7c9cdd8f0b876462485c766dac30078e9ef6f76ce1e57ca92c7bd553bcf1f60203392a2867f47b4a0a7043c0299d7152bd396be0491058589bd61f3bf87e50e82c5986264d760405180611e808c8a8a3397898b4295886121ef565b0390a26040519485943398429387612225565b91906020833d602011611ec1575b81611eae60209383612178565b81010312610434579091506118c8611e06565b3d9150611ea1565b6040513d8b823e3d90fd5b611eec9060203d6020116103b8576103ab8183612178565b611dbf565b88611efe91999299612178565b9638611d74565b8880fd5b63ce2c43c760e01b8952600489fd5b8051801515925082611f2d575b505038611d2f565b611f4092506020809183010191016121bc565b153880611f25565b634e487b7160e01b8b52604160045260248bfd5b606090611d26565b63903a6c4960e01b8b5260048bfd5b8092508d915060203d602011611fa7575b602092611f918284612178565b5081010312611fa35781905138611cac565b8b80fd5b503d611f84565b6040513d8e823e3d90fd5b634e487b7160e01b8e52602160045260248efd5b9095506020813d602011611ffb575b81611fe960209383612178565b81010312611f05575194611b17611b0c565b3d9150611fdc565b634e487b7160e01b8a52601160045260248afd5b90506020813d602011612041575b8161203260209383612178565b81010312611f05575138611aa9565b3d9150612025565b9091506020813d602011612079575b8161206560209383612178565b8101031261207557519038611a69565b8680fd5b3d9150612058565b6009546001600160a01b031691611a11565b63b570443960e01b8352600483fd5b6040906003190112610434576004356002811015610434579060243590565b600435906001600160a01b038216820361043457565b9060028210156120e45752565b634e487b7160e01b600052602160045260246000fd5b60028110156120e457600052600c602052604060002090565b60028110156120e457600052600e602052604060002090565b60028110156120e457600052600d602052604060002090565b610140810190811067ffffffffffffffff82111761216257604052565b634e487b7160e01b600052604160045260246000fd5b90601f8019910116810190811067ffffffffffffffff82111761216257604052565b6001600160a01b03918216815291166020820152604081019190915260600190565b90816020910312610434575180151581036104345790565b6001600160a01b039091168152602081019190915260400190565b93909796959261220d60c0969360e087019a875260208701906120d7565b60408501526060840152608083015260a08201520152565b919360a093612254969298979560c08501998552602085015260408401526060830152608082015201906120d7565b565b8115612260570490565b634e487b7160e01b600052601260045260246000fd5b8181029291811591840414171561228957565b634e487b7160e01b600052601160045260246000fd5b9190820391821161228957565b9190820180921161228957565b60028210156120e45752565b60001981146122895760010190565b156122db57565b60405162461bcd60e51b815260206004820152600d60248201526c496e76616c696420707269636560981b6044820152606490fd5b60028110156120e457801515806123c4575b6123b3576020612355602460018060a01b0360045416936040519485938492631bf8f3f960e11b845260048401906120d7565b5afa9081156123a757600091612375575b506123728115156122d4565b90565b906020823d60201161239f575b8161238f60209383612178565b8101031261050757505138612366565b3d9150612382565b6040513d6000823e3d90fd5b63663dd4ed60e11b60005260046000fd5b506001811415612322565b60028110156120e45780151580612414575b6123b3576020612355602460018060a01b036004541693604051948593849263151319ef60e31b845260048401906120d7565b5060018114156123e1565b600260005414612430576002600055565b633ee5aeb560e01b60005260046000fd5b60ff60035460a01c16156124f4576024602060018060a01b036004541660405192838092633cced1df60e21b825261247c60048301886120d7565b5afa9081156123a7576000916124d5575b506124b85760028110156120e45780151590816124ac575b506123b357565b600191501415386124a5565b6313140a9360e31b60005260028110156120e45760045260246000fd5b6124ee915060203d6020116103b8576103ab8183612178565b3861248d565b636f312cbd60e01b60005260046000fd5b9060009181156126a95760028110156107085780612698576008546001600160a01b03165b6040516370a0823160e01b81523360048201526001600160a01b039190911690602081602481855afa9081156104de57908491869161265f575b50106126505761257382612113565b61257e84825461229f565b9055803b156108fe57836040518092632770a7eb60e21b82528183816125a88933600484016121d4565b03925af1801561129d57612634575b5060055460405163a5507cd760e01b8152926020928492604492849288926001600160a01b031691906125ee9060048601906120d7565b60248401525af191821561105c5791612605575090565b90506020813d60201161262c575b8161262060209383612178565b81010312610434575190565b3d9150612613565b604484612647602094966125ee94612178565b949250506125b7565b631769e17f60e21b8452600484fd5b9150506020813d602011612690575b8161267b60209383612178565b8101031261268c5783905138612564565b8480fd5b3d915061266e565b6009546001600160a01b031661252a565b630ecbf12f60e31b8352600483fdfefb367a4f6b49e1a1318c3c50ce7a6fa55e82d0dd70075802b8ecadeb1ddd733aa2646970667358221220e87a6e28243a99fb40924eb184466f41c3fa9b58d130b50d843d6e81f4f296a764736f6c634300081c0033",
  "linkReferences": {
    "lib/Utils.sol": {
      "Utils": [
        {
          "length": 20,
          "start": 664
        },
        {
          "length": 20,
          "start": 3491
        },
        {
          "length": 20,
          "start": 6908
        }
      ]
    }
  },
  "deployedLinkReferences": {
    "lib/Utils.sol": {
      "Utils": [
        {
          "length": 20,
          "start": 449
        },
        {
          "length": 20,
          "start": 3276
        },
        {
          "length": 20,
          "start": 6693
        }
      ]
    }
  }
}