{
  "_format": "hh-sol-artifact-1",
  "contractName": "Vault",
  "sourceName": "contracts/Vault.sol",
  "abi": [
    {
      "inputs": [
        {
          "internalType": "address",
          "name": "_usdc",
          "type": "address"
        },
        {
          "internalType": "address",
          "name": "_admin",
          "type": "address"
        },
        {
          "internalType": "address",
          "name": "_chainlinkManager",
          "type": "address"
        }
      ],
      "stateMutability": "nonpayable",
      "type": "constructor"
    },
    {
      "inputs": [],
      "name": "AlreadyStarted",
      "type": "error"
    },
    {
      "inputs": [
        {
          "internalType": "enum Utils.Asset",
          "name": "",
          "type": "uint8"
        }
      ],
      "name": "CircuitBreakerActivatedForAsset",
      "type": "error"
    },
    {
      "inputs": [],
      "name": "DivisionByZero",
      "type": "error"
    },
    {
      "inputs": [],
      "name": "FeeReceiverNotSet",
      "type": "error"
    },
    {
      "inputs": [],
      "name": "InSufficientGlobalBufferAmount",
      "type": "error"
    },
    {
      "inputs": [],
      "name": "InsufficientFundForPayout",
      "type": "error"
    },
    {
      "inputs": [],
      "name": "InsufficientTokenAmountSpecified",
      "type": "error"
    },
    {
      "inputs": [],
      "name": "InsufficientVaultDebt",
      "type": "error"
    },
    {
      "inputs": [],
      "name": "InvalidAmount",
      "type": "error"
    },
    {
      "inputs": [],
      "name": "InvalidAssetTypeUsed",
      "type": "error"
    },
    {
      "inputs": [],
      "name": "InvalidNumberOfShares",
      "type": "error"
    },
    {
      "inputs": [],
      "name": "InvalidPrice",
      "type": "error"
    },
    {
      "inputs": [],
      "name": "InvalidVaultID",
      "type": "error"
    },
    {
      "inputs": [],
      "name": "MarketNotOpen",
      "type": "error"
    },
    {
      "inputs": [],
      "name": "NotAdmin",
      "type": "error"
    },
    {
      "inputs": [],
      "name": "NotPerpEngine",
      "type": "error"
    },
    {
      "inputs": [],
      "name": "NotStarted",
      "type": "error"
    },
    {
      "inputs": [],
      "name": "Paused",
      "type": "error"
    },
    {
      "inputs": [],
      "name": "PossibleAccountingErrorOne",
      "type": "error"
    },
    {
      "inputs": [],
      "name": "PossibleAccountingErrorThree",
      "type": "error"
    },
    {
      "inputs": [],
      "name": "PossibleAccountingErrorTwo",
      "type": "error"
    },
    {
      "inputs": [],
      "name": "ReentrancyGuardReentrantCall",
      "type": "error"
    },
    {
      "inputs": [],
      "name": "StocksToReddemLowerThanUserBalance",
      "type": "error"
    },
    {
      "inputs": [],
      "name": "TransferofFundsFailed",
      "type": "error"
    },
    {
      "inputs": [],
      "name": "VaultAlreadyPaidOut",
      "type": "error"
    },
    {
      "anonymous": false,
      "inputs": [
        {
          "indexed": true,
          "internalType": "enum Utils.Asset",
          "name": "asset",
          "type": "uint8"
        },
        {
          "indexed": false,
          "internalType": "int256",
          "name": "delta",
          "type": "int256"
        },
        {
          "indexed": false,
          "internalType": "uint256",
          "name": "date",
          "type": "uint256"
        }
      ],
      "name": "FundingSettled",
      "type": "event"
    },
    {
      "anonymous": false,
      "inputs": [
        {
          "indexed": true,
          "internalType": "address",
          "name": "user",
          "type": "address"
        },
        {
          "indexed": false,
          "internalType": "uint256",
          "name": "amountUSDC",
          "type": "uint256"
        }
      ],
      "name": "MintFeeCollected",
      "type": "event"
    },
    {
      "anonymous": false,
      "inputs": [
        {
          "indexed": false,
          "internalType": "address",
          "name": "newPerp",
          "type": "address"
        }
      ],
      "name": "PerpEngineUpdated",
      "type": "event"
    },
    {
      "anonymous": false,
      "inputs": [
        {
          "indexed": true,
          "internalType": "address",
          "name": "trader",
          "type": "address"
        },
        {
          "indexed": false,
          "internalType": "uint256",
          "name": "burnedAmount",
          "type": "uint256"
        },
        {
          "indexed": false,
          "internalType": "uint256",
          "name": "amountRefunded",
          "type": "uint256"
        },
        {
          "indexed": false,
          "internalType": "uint256",
          "name": "redemtionFee",
          "type": "uint256"
        },
        {
          "indexed": false,
          "internalType": "uint256",
          "name": "date",
          "type": "uint256"
        },
        {
          "indexed": false,
          "internalType": "enum Utils.Asset",
          "name": "assetType",
          "type": "uint8"
        }
      ],
      "name": "PositionClosed",
      "type": "event"
    },
    {
      "anonymous": false,
      "inputs": [
        {
          "indexed": true,
          "internalType": "address",
          "name": "trader",
          "type": "address"
        },
        {
          "indexed": false,
          "internalType": "uint256",
          "name": "mintedAmount",
          "type": "uint256"
        },
        {
          "indexed": false,
          "internalType": "uint256",
          "name": "bufferCollateral",
          "type": "uint256"
        },
        {
          "indexed": false,
          "internalType": "uint256",
          "name": "hedgedCollateral",
          "type": "uint256"
        },
        {
          "indexed": false,
          "internalType": "uint256",
          "name": "entryPrice",
          "type": "uint256"
        },
        {
          "indexed": true,
          "internalType": "uint256",
          "name": "positionId",
          "type": "uint256"
        },
        {
          "indexed": false,
          "internalType": "uint256",
          "name": "date",
          "type": "uint256"
        },
        {
          "indexed": false,
          "internalType": "enum Utils.Asset",
          "name": "assetType",
          "type": "uint8"
        }
      ],
      "name": "PositionCreated",
      "type": "event"
    },
    {
      "anonymous": false,
      "inputs": [
        {
          "indexed": true,
          "internalType": "address",
          "name": "user",
          "type": "address"
        },
        {
          "indexed": false,
          "internalType": "uint256",
          "name": "amountUSDC",
          "type": "uint256"
        }
      ],
      "name": "RedemptionFeeCollected",
      "type": "event"
    },
    {
      "inputs": [],
      "name": "CHAINLINK_PRECISION",
      "outputs": [
        {
          "internalType": "uint256",
          "name": "",
          "type": "uint256"
        }
      ],
      "stateMutability": "view",
      "type": "function"
    },
    {
      "inputs": [],
      "name": "PERCENTAGE_COLLATERAL",
      "outputs": [
        {
          "internalType": "uint256",
          "name": "",
          "type": "uint256"
        }
      ],
      "stateMutability": "view",
      "type": "function"
    },
    {
      "inputs": [],
      "name": "PRECISION",
      "outputs": [
        {
          "internalType": "uint256",
          "name": "",
          "type": "uint256"
        }
      ],
      "stateMutability": "view",
      "type": "function"
    },
    {
      "inputs": [],
      "name": "USDC_PRECISION",
      "outputs": [
        {
          "internalType": "uint256",
          "name": "",
          "type": "uint256"
        }
      ],
      "stateMutability": "view",
      "type": "function"
    },
    {
      "inputs": [
        {
          "internalType": "uint256",
          "name": "dexPrice",
          "type": "uint256"
        },
        {
          "internalType": "uint256",
          "name": "oraclePrice",
          "type": "uint256"
        }
      ],
      "name": "_calculateMintFee",
      "outputs": [
        {
          "internalType": "uint256",
          "name": "",
          "type": "uint256"
        }
      ],
      "stateMutability": "pure",
      "type": "function"
    },
    {
      "inputs": [
        {
          "internalType": "uint256",
          "name": "dexPrice",
          "type": "uint256"
        },
        {
          "internalType": "uint256",
          "name": "oraclePrice",
          "type": "uint256"
        }
      ],
      "name": "_calculateRedeemFee",
      "outputs": [
        {
          "internalType": "uint256",
          "name": "",
          "type": "uint256"
        }
      ],
      "stateMutability": "pure",
      "type": "function"
    },
    {
      "inputs": [],
      "name": "admin",
      "outputs": [
        {
          "internalType": "address",
          "name": "",
          "type": "address"
        }
      ],
      "stateMutability": "view",
      "type": "function"
    },
    {
      "inputs": [],
      "name": "chainlinkManager",
      "outputs": [
        {
          "internalType": "contract ChainlinkManager",
          "name": "",
          "type": "address"
        }
      ],
      "stateMutability": "view",
      "type": "function"
    },
    {
      "inputs": [
        {
          "internalType": "uint256",
          "name": "value18",
          "type": "uint256"
        }
      ],
      "name": "convert18ToUSDCDecimal",
      "outputs": [
        {
          "internalType": "uint256",
          "name": "",
          "type": "uint256"
        }
      ],
      "stateMutability": "pure",
      "type": "function"
    },
    {
      "inputs": [
        {
          "internalType": "address",
          "name": "token",
          "type": "address"
        }
      ],
      "name": "emergencyWithdraw",
      "outputs": [],
      "stateMutability": "nonpayable",
      "type": "function"
    },
    {
      "inputs": [],
      "name": "feeReceiver",
      "outputs": [
        {
          "internalType": "address",
          "name": "",
          "type": "address"
        }
      ],
      "stateMutability": "view",
      "type": "function"
    },
    {
      "inputs": [
        {
          "internalType": "enum Utils.Asset",
          "name": "asset",
          "type": "uint8"
        }
      ],
      "name": "getScaledChainlinkPrice",
      "outputs": [
        {
          "internalType": "uint256",
          "name": "",
          "type": "uint256"
        }
      ],
      "stateMutability": "view",
      "type": "function"
    },
    {
      "inputs": [
        {
          "internalType": "enum Utils.Asset",
          "name": "asset",
          "type": "uint8"
        }
      ],
      "name": "getScaledTwapPrice",
      "outputs": [
        {
          "internalType": "uint256",
          "name": "",
          "type": "uint256"
        }
      ],
      "stateMutability": "view",
      "type": "function"
    },
    {
      "inputs": [
        {
          "internalType": "enum Utils.Asset",
          "name": "",
          "type": "uint8"
        }
      ],
      "name": "globalBufferUSDC",
      "outputs": [
        {
          "internalType": "uint256",
          "name": "",
          "type": "uint256"
        }
      ],
      "stateMutability": "view",
      "type": "function"
    },
    {
      "inputs": [],
      "name": "isStarted",
      "outputs": [
        {
          "internalType": "bool",
          "name": "",
          "type": "bool"
        }
      ],
      "stateMutability": "view",
      "type": "function"
    },
    {
      "inputs": [
        {
          "internalType": "enum Utils.Asset",
          "name": "assetType",
          "type": "uint8"
        },
        {
          "internalType": "uint256",
          "name": "numofShares",
          "type": "uint256"
        }
      ],
      "name": "openPosition",
      "outputs": [],
      "stateMutability": "nonpayable",
      "type": "function"
    },
    {
      "inputs": [],
      "name": "perpEngine",
      "outputs": [
        {
          "internalType": "address",
          "name": "",
          "type": "address"
        }
      ],
      "stateMutability": "view",
      "type": "function"
    },
    {
      "inputs": [],
      "name": "perpEngineContract",
      "outputs": [
        {
          "internalType": "contract PerpEngine",
          "name": "",
          "type": "address"
        }
      ],
      "stateMutability": "view",
      "type": "function"
    },
    {
      "inputs": [
        {
          "internalType": "enum Utils.Asset",
          "name": "assetType",
          "type": "uint8"
        },
        {
          "internalType": "uint256",
          "name": "stockToRedeem",
          "type": "uint256"
        }
      ],
      "name": "redeemStock",
      "outputs": [],
      "stateMutability": "nonpayable",
      "type": "function"
    },
    {
      "inputs": [
        {
          "internalType": "uint256",
          "name": "vaultID",
          "type": "uint256"
        },
        {
          "internalType": "uint256",
          "name": "portionToRedeem",
          "type": "uint256"
        }
      ],
      "name": "redeemVault",
      "outputs": [],
      "stateMutability": "nonpayable",
      "type": "function"
    },
    {
      "inputs": [
        {
          "internalType": "address",
          "name": "_receiver",
          "type": "address"
        }
      ],
      "name": "setFeeReceiver",
      "outputs": [],
      "stateMutability": "nonpayable",
      "type": "function"
    },
    {
      "inputs": [
        {
          "internalType": "address",
          "name": "_perp",
          "type": "address"
        }
      ],
      "name": "setPerpEngine",
      "outputs": [],
      "stateMutability": "nonpayable",
      "type": "function"
    },
    {
      "inputs": [
        {
          "internalType": "address",
          "name": "_sTSLA",
          "type": "address"
        },
        {
          "internalType": "address",
          "name": "_sAPPL",
          "type": "address"
        },
        {
          "internalType": "address",
          "name": "_perpEngine",
          "type": "address"
        }
      ],
      "name": "startUpProtocol",
      "outputs": [],
      "stateMutability": "nonpayable",
      "type": "function"
    },
    {
      "inputs": [
        {
          "internalType": "enum Utils.Asset",
          "name": "asset",
          "type": "uint8"
        },
        {
          "internalType": "int256",
          "name": "fundingFee",
          "type": "int256"
        }
      ],
      "name": "syncFundingPnL",
      "outputs": [],
      "stateMutability": "nonpayable",
      "type": "function"
    },
    {
      "inputs": [
        {
          "internalType": "enum Utils.Asset",
          "name": "",
          "type": "uint8"
        }
      ],
      "name": "totalUserBufferUSDC",
      "outputs": [
        {
          "internalType": "uint256",
          "name": "",
          "type": "uint256"
        }
      ],
      "stateMutability": "view",
      "type": "function"
    },
    {
      "inputs": [
        {
          "internalType": "enum Utils.Asset",
          "name": "",
          "type": "uint8"
        }
      ],
      "name": "totalVaultDebt",
      "outputs": [
        {
          "internalType": "uint256",
          "name": "",
          "type": "uint256"
        }
      ],
      "stateMutability": "view",
      "type": "function"
    },
    {
      "inputs": [
        {
          "internalType": "address",
          "name": "",
          "type": "address"
        }
      ],
      "name": "userPositionCount",
      "outputs": [
        {
          "internalType": "uint256",
          "name": "",
          "type": "uint256"
        }
      ],
      "stateMutability": "view",
      "type": "function"
    },
    {
      "inputs": [
        {
          "internalType": "address",
          "name": "",
          "type": "address"
        },
        {
          "internalType": "uint256",
          "name": "",
          "type": "uint256"
        }
      ],
      "name": "userPositions",
      "outputs": [
        {
          "internalType": "address",
          "name": "trader",
          "type": "address"
        },
        {
          "internalType": "uint256",
          "name": "mintedAmount",
          "type": "uint256"
        },
        {
          "internalType": "uint256",
          "name": "bufferCollateral",
          "type": "uint256"
        },
        {
          "internalType": "uint256",
          "name": "hedgedCollateral",
          "type": "uint256"
        },
        {
          "internalType": "uint256",
          "name": "entryPrice",
          "type": "uint256"
        },
        {
          "internalType": "uint256",
          "name": "positionIndex",
          "type": "uint256"
        },
        {
          "internalType": "uint256",
          "name": "timestamp",
          "type": "uint256"
        },
        {
          "internalType": "enum Utils.Asset",
          "name": "assetType",
          "type": "uint8"
        },
        {
          "internalType": "bool",
          "name": "paidOut",
          "type": "bool"
        },
        {
          "internalType": "bool",
          "name": "isActive",
          "type": "bool"
        }
      ],
      "stateMutability": "view",
      "type": "function"
    }
  ],
  "bytecode": "0x60803460a857601f61223d38819003918201601f19168301916001600160401b0383118484101760ad5780849260609460405283398101031260a85760428160c3565b6056604060506020850160c3565b930160c3565b60016000819055600480546001600160a01b03199081166001600160a01b0394851617909155600680548216948416949094179093558054909216921691909117905560405161216690816100d78239f35b600080fd5b634e487b7160e01b600052604160045260246000fd5b51906001600160a01b038216820360a85756fe6080604052600436101561001257600080fd5b6000803560e01c806302c62347146112685780630918eb141461122f5780631734f0d41461120c57806340611b47146111e357806348ba4d2b146111ba578063544736e6146111945780635527d9eb1461116a5780635ada55d51461114b5780635e1b4d991461108b5780636ff1c9bc14610f685780638954e50c14610f3e5780639837ecb414610f14578063aaf5eb6814610ef1578063b0c8805f1461091a578063b3f00674146108f1578063b619daf714610840578063c2ce1d5614610760578063c70520d71461074c578063d621fca71461072e578063e2e7bc7a14610605578063e35db399146105dc578063ebda477d146105bd578063efdcd97414610526578063f594e98d14610504578063f7997f24146104da578063f851a440146104b1578063fb50b50b1461047e5763fc5482691461015157600080fd5b3461047b5761015f3661184f565b610167611e07565b60ff60035460a01c161561046c5761017e82611e29565b6002546001600160a01b03161561045d576101998183611f49565b670de0b6b3a76400006101c66101c06101b186611a83565b6101ba87611b62565b90611c46565b8361196a565b049080821161040757818111156103fe57816101e19161199d565b925b6006546040516370a0823160e01b81523060048201526001600160a01b0390911690602081602481855afa80156103f357869188916103b9575b50106103aa5760405163a9059cbb60e01b602082019081523360248301526044820187905287928392909190839061026281606481015b03601f1981018352826119b7565b51925af161026e6119ef565b901590811561037a575b5061036b5760065460025460405163a9059cbb60e01b81526001600160a01b0391821660048201526024810185905294939291602091869160449183918b91165af1908115610360577f9ddb426073692493031321779ba6a652bbd3223988288b68a35cda043f30bb219461032992610333575b506040518381527fcf74743fee8ef45d0f775d63c2e7129e1aec29d2ce0222e2d979104c2921048160203392a26040519384933397429286611bb2565b0390a26001815580f35b6103549060203d602011610359575b61034c81836119b7565b810190611a2f565b6102ec565b503d610342565b6040513d88823e3d90fd5b63ce2c43c760e01b8552600485fd5b805180151592508261038f575b505038610278565b6103a29250602080918301019101611a2f565b153880610387565b63903a6c4960e01b8652600486fd5b9150506020813d6020116103eb575b816103d5602093836119b7565b810103126103e6578590513861021d565b600080fd5b3d91506103c8565b6040513d89823e3d90fd5b905083926101e3565b60405162461bcd60e51b815260206004820152602860248201527f526564656d7074696f6e20666565206578636565647320726564656d7074696f6044820152671b88185b5bdd5b9d60c21b6064820152608490fd5b630b37568b60e01b8352600483fd5b636f312cbd60e01b8352600483fd5b80fd5b503461047b57602036600319011261047b5760043590600282101561047b5760206104a8836118d9565b54604051908152f35b503461047b578060031936011261047b576001546040516001600160a01b039091168152602090f35b503461047b57602036600319011261047b5760043590600282101561047b5760206104a8836118c0565b503461047b57602061051e610518366118f2565b90611da5565b604051908152f35b503461047b57602036600319011261047b5761054061186e565b6001546001600160a01b031633036105ae576001600160a01b03168015610577576001600160601b0360a01b600254161760025580f35b60405162461bcd60e51b815260206004820152600f60248201526e496e76616c6964206164647265737360881b6044820152606490fd5b637bfa4b9f60e01b8252600482fd5b503461047b578060031936011261047b5760206040516305f5e1008152f35b503461047b578060031936011261047b576005546040516001600160a01b039091168152602090f35b503461047b57604036600319011261047b57600435600281101561072a57600354602435906001600160a01b0316330361071b57828215158061070e575b6106ff57838213156106b157610658836118d9565b6106638382546119aa565b90555b61069d5760407f44fab53963bfbf7a6098b90371183aaa38b26104f927afff436511e271da14b7918151908152426020820152a280f35b634e487b7160e01b83526021600452602483fd5b83821215610666576106c282611c35565b806106cc856118d9565b5411156106ee576106e76106df856118d9565b91825461199d565b9055610666565b50836106f9846118d9565b55610666565b63663dd4ed60e11b8452600484fd5b5050826001831415610643565b636dc842c760e11b8352600483fd5b5080fd5b503461047b578060031936011261047b576020604051620f42408152f35b503461047b57602061051e6101ba366118f2565b503461047b57606036600319011261047b5761077a61186e565b6024356001600160a01b0381169081900361083c576044356001600160a01b0381169290839003610838576001546001600160a01b031633036108295760035460ff8160a01c1661081a57600160a01b9060ff60a01b19161760035560018060a01b03166001600160601b0360a01b60075416176007556001600160601b0360a01b60085416176008556001600160601b0360a01b600554161760055580f35b631fbde44560e01b8552600485fd5b637bfa4b9f60e01b8452600484fd5b8380fd5b8280fd5b503461047b57602036600319011261047b5761085a61186e565b6001546001600160a01b031633036105ae576001600160a01b031680156108bd576020817f8a64d92abd11c5d3e10159842d11181b5407bfb5f34b58d52d7d7ddcaab64f17926001600160601b0360a01b6005541617600555604051908152a180f35b60405162461bcd60e51b815260206004820152600c60248201526b0696e76616c696420706572760a41b6044820152606490fd5b503461047b578060031936011261047b576002546040516001600160a01b039091168152602090f35b503461047b57610929366118f2565b9060ff60035460a01c161561046c57338352600a6020526040832054811015610ee2578115610ed3576002546001600160a01b03161561045d57338352600960205260408320818452602052604083209160018060a01b0383541615610ec457600183019182548015610eb557600785019384549160ff8360081c16610ea657808511610e555760ff83166002811015610e415797602496979815600014610e2d576007546020906001600160a01b03165b6040516370a0823160e01b815233600482015298899182906001600160a01b03165afa968715610e20578197610dec575b5080610ddd5750670de0b6b3a76400008502858104670de0b6b3a764000003610dc75781610a399161197d565b9060028901918254906003670de0b6b3a7640000610a57838561196a565b049b0193670de0b6b3a7640000610a708654938461196a565b04928c8110610db657898510610da557838310610d94578c610aa191610a998c610aa89861199d565b80995561199d565b905561199d565b905515610d82575b5060ff84541694610ac0866118a7565b5415610d7157610aec610adc610ad5886118d9565b548361196a565b610ae5886118a7565b549061197d565b9586610af7826118d9565b5410610d5f575b81610b08826118a7565b5410610d48575b610b18906118d9565b610b2387825461199d565b9055610b356106df60ff8754166118a7565b9055816000931015610d1c575b5050610b84670de0b6b3a7640000610b7c610b6d60ff8654166101ba610b6782611a83565b91611b62565b610b7787866119aa565b61196a565b0493826119aa565b83811115610d135783610b969161199d565b925b60065460405163a9059cbb60e01b602082019081523360248301526044820187905260009283926001600160a01b0390911691908390610bdb8160648101610254565b51925af1610be76119ef565b9015908115610ce3575b50610cd25760065460025460405163a9059cbb60e01b81526001600160a01b039182166004820152602481018490529160209183916044918391600091165af18015610cc6577f9ddb426073692493031321779ba6a652bbd3223988288b68a35cda043f30bb2194610ca49260ff92610ca9575b506040518481527fcf74743fee8ef45d0f775d63c2e7129e1aec29d2ce0222e2d979104c2921048160203392a254166040519384933397429286611bb2565b0390a2005b610cc19060203d6020116103595761034c81836119b7565b610c65565b6040513d6000823e3d90fd5b63ce2c43c760e01b60005260046000fd5b8051801515925082610cf8575b505038610bf1565b610d0b9250602080918301019101611a2f565b153880610cf0565b60009350610b98565b60076040610d419460ff93338252600960205282822090825260205220015416611f49565b3880610b42565b9050610b18610d56826118a7565b54919050610b0f565b9550610d6a866118d9565b5495610afe565b6323d359a360e01b60005260046000fd5b62ffff00191661010017845538610ab0565b630977cde360e11b60005260046000fd5b639244327760e01b60005260046000fd5b634b60e55760e11b60005260046000fd5b634e487b7160e01b600052601160045260246000fd5b63162908e360e11b8152600490fd5b9096506020813d602011610e18575b81610e08602093836119b7565b810103126103e657519538610a0c565b3d9150610dfb565b50604051903d90823e3d90fd5b6008546020906001600160a01b03166109db565b634e487b7160e01b89526021600452602489fd5b60405162461bcd60e51b815260206004820152602360248201527f52656465656d20616d6f756e742065786365656473206d696e74656420616d6f6044820152621d5b9d60ea1b6064820152608490fd5b6374c60da760e11b8852600488fd5b6374c60da760e11b8652600486fd5b6362e2ae4360e11b8452600484fd5b630ecbf12f60e31b8352600483fd5b6362e2ae4360e11b8352600483fd5b503461047b578060031936011261047b576020604051670de0b6b3a76400008152f35b503461047b57602036600319011261047b5760043590600282101561047b5760206104a8836118a7565b503461047b57602036600319011261047b5760043590600282101561047b57602061051e83611b62565b503461047b57602036600319011261047b57610f8261186e565b6001546001600160a01b0316903382900361107c576040516370a0823160e01b81523060048201526001600160a01b039190911691602082602481865afa91821561107157849261103b575b5060405163a9059cbb60e01b81526001600160a01b0390911660048201526024810191909152906020908290818581604481015b03925af1801561103057611014575080f35b61102c9060203d6020116103595761034c81836119b7565b5080f35b6040513d84823e3d90fd5b91506020823d602011611069575b81611056602093836119b7565b810103126103e657905190611002610fce565b3d9150611049565b6040513d86823e3d90fd5b637bfa4b9f60e01b8352600483fd5b503461047b57604036600319011261047b57610140906040906001600160a01b036110b461186e565b168152600960205281812060243582526020522060ff60018060a01b0382541691600181015490600281015460038201546004830154906005840154926007600686015495015495604051988952602089015260408801526060870152608086015260a085015260c084015261112f60e08401838316611884565b818160081c16151561010084015260101c161515610120820152f35b503461047b57602036600319011261047b57602061051e600435611b40565b503461047b57602036600319011261047b5760043590600282101561047b57602061051e83611a83565b503461047b578060031936011261047b57602060ff60035460a01c166040519015158152f35b503461047b578060031936011261047b576003546040516001600160a01b039091168152602090f35b503461047b578060031936011261047b576004546040516001600160a01b039091168152602090f35b503461047b578060031936011261047b576020604051670f43fc2c04ee00008152f35b503461047b57602036600319011261047b576020906040906001600160a01b0361125761186e565b168152600a83522054604051908152f35b503461047b576112773661184f565b611282929192611e07565b80156118405761129183611e29565b6002546001600160a01b03161561183157600283101561181d578261180b576007546001600160a01b0316905b6112c784611a83565b936112da856112d583611b62565b611da5565b94670de0b6b3a76400006112ee848361196a565b04956112f987611b40565b606e8102818104606e14821517156117f75761133e670de0b6b3a7640000611338600a9b611332606461134596049d8e9704809761199d565b9661196a565b04611b40565b80996119aa565b9561134f856118a7565b61135a8382546119aa565b9055611365856118c0565b6113708782546119aa565b905561137b856118d9565b6113868382546119aa565b9055338852600a602052604088205496604051610140810181811067ffffffffffffffff8211176117e3578a600789938c93604052338152602081018c815260408201898152606083018b815260808401908d825260a085019288845260c086019442865260e087019a8b526040610100880199808b5261012089019b60018d523382526009602052828220908252602052209660018060a01b039051166001600160601b0360a01b88541617875551600187015551600286015551600385015551600484015551600583015551600682015501925160028110156117cf5783549151925162ffffff1990921660ff919091161791151560081b61ff00169190911790151560101b62ff000016179055338952600a60205260408920805460001981146117bb5760010190556006546040516370a0823160e01b81523360048201526001600160a01b039091169190602081602481865afa9081156117b0579082918c91611777575b501061176857899182918260405160208101926323b872dd60e01b845233602483015230604483015260648201526064815261152c6084826119b7565b51925af16115386119ef565b9015908115611738575b50611729576001600160a01b031697883b15611725576040516340c10f1960e01b8152336004820152602481018790529888908a90604490829084905af1801561171a57611701575b60065460025460405163a9059cbb60e01b81526001600160a01b03918216600482015260248101849052999a50979896978a9791602091839160449183918c91165af180156103f3576116e4575b50600554604051635711f28560e11b81529660209188916044918391906001600160a01b031661160c600484018c611884565b8860248401525af180156116d9576116a2575b61167595506040519081527fd2b7c9cdd8f0b876462485c766dac30078e9ef6f76ce1e57ca92c7bd553bcf1f60203392a260405195865260208601526040850152606084015242608084015260a0830190611884565b7ffb367a4f6b49e1a1318c3c50ce7a6fa55e82d0dd70075802b8ecadeb1ddd733a60c03392a36001815580f35b6020863d6020116116d1575b816116bb602093836119b7565b810103126116cd57611675955061161f565b8880fd5b3d91506116ae565b6040513d8b823e3d90fd5b6116fc9060203d6020116103595761034c81836119b7565b6115d9565b949596909781611710916119b7565b959493879061158b565b6040513d8a823e3d90fd5b8780fd5b63ce2c43c760e01b8852600488fd5b805180151592508261174d575b505038611542565b6117609250602080918301019101611a2f565b153880611745565b63903a6c4960e01b8a5260048afd5b9150506020813d6020116117a8575b81611793602093836119b7565b810103126117a457819051386114ef565b8a80fd5b3d9150611786565b6040513d8d823e3d90fd5b634e487b7160e01b8b52601160045260248bfd5b634e487b7160e01b8d52602160045260248dfd5b634e487b7160e01b8b52604160045260248bfd5b634e487b7160e01b88526011600452602488fd5b6008546001600160a01b0316906112be565b634e487b7160e01b82526021600452602482fd5b630b37568b60e01b8252600482fd5b63b570443960e01b8252600482fd5b60409060031901126103e65760043560028110156103e6579060243590565b600435906001600160a01b03821682036103e657565b9060028210156118915752565b634e487b7160e01b600052602160045260246000fd5b600281101561189157600052600b602052604060002090565b600281101561189157600052600d602052604060002090565b600281101561189157600052600c602052604060002090565b60409060031901126103e6576004359060243590565b906402540be4008202918083046402540be4001490151715610dc757565b90669fdf42f6e48000820291808304669fdf42f6e480001490151715610dc757565b90660aa87bee538000820291808304660aa87bee5380001490151715610dc757565b81810292918115918404141715610dc757565b8115611987570490565b634e487b7160e01b600052601260045260246000fd5b91908203918211610dc757565b91908201809211610dc757565b90601f8019910116810190811067ffffffffffffffff8211176119d957604052565b634e487b7160e01b600052604160045260246000fd5b3d15611a2a573d9067ffffffffffffffff82116119d95760405191611a1e601f8201601f1916602001846119b7565b82523d6000602084013e565b606090565b908160209103126103e6575180151581036103e65790565b15611a4e57565b60405162461bcd60e51b815260206004820152600d60248201526c496e76616c696420707269636560981b6044820152606490fd5b60028110156118915780151580611b35575b611b24576020611ac8602460018060a01b0360045416936040519485938492631bf8f3f960e11b84526004840190611884565b5afa8015610cc657600090611af0575b611aed9150611ae8811515611a47565b611908565b90565b6020823d602011611b1c575b81611b09602093836119b7565b8101031261047b5750611aed9051611ad8565b3d9150611afc565b63663dd4ed60e11b60005260046000fd5b506001811415611a95565b8015611b515764e8d4a51000900490565b63162908e360e11b60005260046000fd5b60028110156118915780151580611ba7575b611b24576020611ac8602460018060a01b036004541693604051948593849263151319ef60e31b84526004840190611884565b506001811415611b74565b9095949293611bdb9460809360a084019884526020840152604083015260608201520190611884565b565b81810392916000138015828513169184121617610dc757565b90670de0b6b3a7640000820291808305670de0b6b3a76400001490151715610dc757565b811561198757600160ff1b8114600019831416610dc7570590565b600160ff1b8114610dc75760000390565b90611c5c611c5782611c6194611bdd565b611bf6565b611c1a565b60008112611d9657805b666a94d74f430000821115611d8957666a94d74f4300008113611d1557666a94d74f42ffff1913611ca257506611c37937e0800090565b666a94d74f42ffff198101908111610dc75766470de4df8200008111611d07575b611cd466470de4df82000091611948565b046611c37937e08000036611c37937e080008111610dc75766071afd498d0000811015611aed575066071afd498d000090565b5066470de4df820000611cc3565b666a94d74f42ffff19810191508111610dc75766470de4df8200008111611d7b575b611d4866470de4df82000091611926565b046611c37937e0800001806611c37937e0800011610dc75766b1a2bc2ec50000811115611aed575066b1a2bc2ec5000090565b5066470de4df820000611d37565b50506611c37937e0800090565b611d9f81611c35565b90611c6b565b90611c5c611c5782611db694611bdd565b60008112611df957805b666a94d74f430000811115611d8957666a94d74f42ffff198212611d155750666a94d74f4300008113611ca257506611c37937e0800090565b611e0281611c35565b611dc0565b600260005414611e18576002600055565b633ee5aeb560e01b60005260046000fd5b60ff60035460a01c1615611f385760018060a01b036004541660405163d4ce85f360e01b8152602081600481855afa908115610cc657600091611f19575b5015611f0857602060249160405192838092633cced1df60e21b8252611e906004830188611884565b5afa908115610cc657600091611ee9575b50611ecc576002811015611891578015159081611ec0575b50611b2457565b60019150141538611eb9565b6313140a9360e31b60005260028110156118915760045260246000fd5b611f02915060203d6020116103595761034c81836119b7565b38611ea1565b63300b4e3360e21b60005260046000fd5b611f32915060203d6020116103595761034c81836119b7565b38611e67565b636f312cbd60e01b60005260046000fd5b6000918015610ed357600282101561069d578161211f576007546001600160a01b03165b6040516370a0823160e01b81523360048201526001600160a01b039190911690602081602481855afa9081156121145790839186916120db575b50106120cc57611fb6836118c0565b611fc183825461199d565b9055803b1561083857604051632770a7eb60e21b8152336004820152602481018390529084908290604490829084905af180156110715761209e575b5061204c604461201e670de0b6b3a7640000611338602095610b7788611a83565b60055460405163a5507cd760e01b8152958694859389936001600160a01b0316929091906004860190611884565b60248401525af19182156120925791612063575090565b90506020813d60201161208a575b8161207e602093836119b7565b810103126103e6575190565b3d9150612071565b604051903d90823e3d90fd5b604461201e670de0b6b3a7640000611338876120c06020979961204c976119b7565b97955050505050611ffd565b631769e17f60e21b8452600484fd5b9150506020813d60201161210c575b816120f7602093836119b7565b810103126121085782905138611fa7565b8480fd5b3d91506120ea565b6040513d87823e3d90fd5b6008546001600160a01b0316611f6d56fea264697066735822122021db8faae3d6fbf8d9b04e69fcd18e5b82fd7e2540370eebe0fa9b1ffcfff58864736f6c634300081c0033",
  "linkReferences": {},
  "deployedLinkReferences": {}
}