{
    "_format": "hh-sol-artifact-1",
    "contractName": "LiquidityPool",
    "sourceName": "contracts/LiquidityPool.sol",
    "abi": [
        {
            "inputs": [
                {
                    "internalType": "address",
                    "name": "_usdc",
                    "type": "address"
                }
            ],
            "stateMutability": "nonpayable",
            "type": "constructor"
        },
        {
            "inputs": [
                {
                    "internalType": "address",
                    "name": "spender",
                    "type": "address"
                },
                {
                    "internalType": "uint256",
                    "name": "allowance",
                    "type": "uint256"
                },
                {
                    "internalType": "uint256",
                    "name": "needed",
                    "type": "uint256"
                }
            ],
            "name": "ERC20InsufficientAllowance",
            "type": "error"
        },
        {
            "inputs": [
                {
                    "internalType": "address",
                    "name": "sender",
                    "type": "address"
                },
                {
                    "internalType": "uint256",
                    "name": "balance",
                    "type": "uint256"
                },
                {
                    "internalType": "uint256",
                    "name": "needed",
                    "type": "uint256"
                }
            ],
            "name": "ERC20InsufficientBalance",
            "type": "error"
        },
        {
            "inputs": [
                {
                    "internalType": "address",
                    "name": "approver",
                    "type": "address"
                }
            ],
            "name": "ERC20InvalidApprover",
            "type": "error"
        },
        {
            "inputs": [
                {
                    "internalType": "address",
                    "name": "receiver",
                    "type": "address"
                }
            ],
            "name": "ERC20InvalidReceiver",
            "type": "error"
        },
        {
            "inputs": [
                {
                    "internalType": "address",
                    "name": "sender",
                    "type": "address"
                }
            ],
            "name": "ERC20InvalidSender",
            "type": "error"
        },
        {
            "inputs": [
                {
                    "internalType": "address",
                    "name": "spender",
                    "type": "address"
                }
            ],
            "name": "ERC20InvalidSpender",
            "type": "error"
        },
        {
            "inputs": [],
            "name": "InsufficientLPBalance",
            "type": "error"
        },
        {
            "inputs": [],
            "name": "InsufficientLiquidity",
            "type": "error"
        },
        {
            "inputs": [],
            "name": "InsufficientUSDC",
            "type": "error"
        },
        {
            "inputs": [],
            "name": "NotPerpMarket",
            "type": "error"
        },
        {
            "inputs": [],
            "name": "NotVault",
            "type": "error"
        },
        {
            "inputs": [],
            "name": "OverRelease",
            "type": "error"
        },
        {
            "inputs": [
                {
                    "internalType": "address",
                    "name": "owner",
                    "type": "address"
                }
            ],
            "name": "OwnableInvalidOwner",
            "type": "error"
        },
        {
            "inputs": [
                {
                    "internalType": "address",
                    "name": "account",
                    "type": "address"
                }
            ],
            "name": "OwnableUnauthorizedAccount",
            "type": "error"
        },
        {
            "inputs": [],
            "name": "ReentrancyGuardReentrantCall",
            "type": "error"
        },
        {
            "inputs": [],
            "name": "ZeroAmount",
            "type": "error"
        },
        {
            "anonymous": false,
            "inputs": [
                {
                    "indexed": true,
                    "internalType": "address",
                    "name": "owner",
                    "type": "address"
                },
                {
                    "indexed": true,
                    "internalType": "address",
                    "name": "spender",
                    "type": "address"
                },
                {
                    "indexed": false,
                    "internalType": "uint256",
                    "name": "value",
                    "type": "uint256"
                }
            ],
            "name": "Approval",
            "type": "event"
        },
        {
            "anonymous": false,
            "inputs": [
                {
                    "indexed": true,
                    "internalType": "address",
                    "name": "user",
                    "type": "address"
                },
                {
                    "indexed": false,
                    "internalType": "uint256",
                    "name": "usdcAmount",
                    "type": "uint256"
                },
                {
                    "indexed": false,
                    "internalType": "uint256",
                    "name": "lpTokens",
                    "type": "uint256"
                }
            ],
            "name": "Deposited",
            "type": "event"
        },
        {
            "anonymous": false,
            "inputs": [
                {
                    "indexed": true,
                    "internalType": "address",
                    "name": "user",
                    "type": "address"
                },
                {
                    "indexed": false,
                    "internalType": "uint256",
                    "name": "amount",
                    "type": "uint256"
                }
            ],
            "name": "FeeClaimed",
            "type": "event"
        },
        {
            "anonymous": false,
            "inputs": [
                {
                    "indexed": false,
                    "internalType": "uint256",
                    "name": "amount",
                    "type": "uint256"
                }
            ],
            "name": "FeeCollected",
            "type": "event"
        },
        {
            "anonymous": false,
            "inputs": [
                {
                    "indexed": true,
                    "internalType": "address",
                    "name": "previousOwner",
                    "type": "address"
                },
                {
                    "indexed": true,
                    "internalType": "address",
                    "name": "newOwner",
                    "type": "address"
                }
            ],
            "name": "OwnershipTransferred",
            "type": "event"
        },
        {
            "anonymous": false,
            "inputs": [
                {
                    "indexed": false,
                    "internalType": "uint256",
                    "name": "totalLiquidity",
                    "type": "uint256"
                },
                {
                    "indexed": false,
                    "internalType": "uint256",
                    "name": "reservedLiquidity",
                    "type": "uint256"
                },
                {
                    "indexed": false,
                    "internalType": "uint256",
                    "name": "utilizationBps",
                    "type": "uint256"
                }
            ],
            "name": "PoolStats",
            "type": "event"
        },
        {
            "anonymous": false,
            "inputs": [
                {
                    "indexed": false,
                    "internalType": "address",
                    "name": "to",
                    "type": "address"
                },
                {
                    "indexed": false,
                    "internalType": "uint256",
                    "name": "amount",
                    "type": "uint256"
                }
            ],
            "name": "Released",
            "type": "event"
        },
        {
            "anonymous": false,
            "inputs": [
                {
                    "indexed": false,
                    "internalType": "address",
                    "name": "from",
                    "type": "address"
                },
                {
                    "indexed": false,
                    "internalType": "uint256",
                    "name": "amount",
                    "type": "uint256"
                }
            ],
            "name": "ReserveFrom",
            "type": "event"
        },
        {
            "anonymous": false,
            "inputs": [
                {
                    "indexed": false,
                    "internalType": "uint256",
                    "name": "amount",
                    "type": "uint256"
                }
            ],
            "name": "Reserved",
            "type": "event"
        },
        {
            "anonymous": false,
            "inputs": [
                {
                    "indexed": true,
                    "internalType": "address",
                    "name": "from",
                    "type": "address"
                },
                {
                    "indexed": true,
                    "internalType": "address",
                    "name": "to",
                    "type": "address"
                },
                {
                    "indexed": false,
                    "internalType": "uint256",
                    "name": "value",
                    "type": "uint256"
                }
            ],
            "name": "Transfer",
            "type": "event"
        },
        {
            "anonymous": false,
            "inputs": [
                {
                    "indexed": true,
                    "internalType": "address",
                    "name": "user",
                    "type": "address"
                },
                {
                    "indexed": false,
                    "internalType": "uint256",
                    "name": "usdcAmount",
                    "type": "uint256"
                },
                {
                    "indexed": false,
                    "internalType": "uint256",
                    "name": "lpTokens",
                    "type": "uint256"
                }
            ],
            "name": "Withdrawn",
            "type": "event"
        },
        {
            "inputs": [
                {
                    "internalType": "address",
                    "name": "owner",
                    "type": "address"
                },
                {
                    "internalType": "address",
                    "name": "spender",
                    "type": "address"
                }
            ],
            "name": "allowance",
            "outputs": [
                {
                    "internalType": "uint256",
                    "name": "",
                    "type": "uint256"
                }
            ],
            "stateMutability": "view",
            "type": "function"
        },
        {
            "inputs": [
                {
                    "internalType": "address",
                    "name": "spender",
                    "type": "address"
                },
                {
                    "internalType": "uint256",
                    "name": "value",
                    "type": "uint256"
                }
            ],
            "name": "approve",
            "outputs": [
                {
                    "internalType": "bool",
                    "name": "",
                    "type": "bool"
                }
            ],
            "stateMutability": "nonpayable",
            "type": "function"
        },
        {
            "inputs": [],
            "name": "availableLiquidity",
            "outputs": [
                {
                    "internalType": "uint256",
                    "name": "",
                    "type": "uint256"
                }
            ],
            "stateMutability": "view",
            "type": "function"
        },
        {
            "inputs": [
                {
                    "internalType": "address",
                    "name": "account",
                    "type": "address"
                }
            ],
            "name": "balanceOf",
            "outputs": [
                {
                    "internalType": "uint256",
                    "name": "",
                    "type": "uint256"
                }
            ],
            "stateMutability": "view",
            "type": "function"
        },
        {
            "inputs": [],
            "name": "claimFees",
            "outputs": [],
            "stateMutability": "nonpayable",
            "type": "function"
        },
        {
            "inputs": [
                {
                    "internalType": "address",
                    "name": "user",
                    "type": "address"
                }
            ],
            "name": "claimFeesFor",
            "outputs": [],
            "stateMutability": "nonpayable",
            "type": "function"
        },
        {
            "inputs": [
                {
                    "internalType": "uint256",
                    "name": "amount",
                    "type": "uint256"
                }
            ],
            "name": "collectFee",
            "outputs": [],
            "stateMutability": "nonpayable",
            "type": "function"
        },
        {
            "inputs": [],
            "name": "decimals",
            "outputs": [
                {
                    "internalType": "uint8",
                    "name": "",
                    "type": "uint8"
                }
            ],
            "stateMutability": "view",
            "type": "function"
        },
        {
            "inputs": [
                {
                    "internalType": "uint256",
                    "name": "amount",
                    "type": "uint256"
                }
            ],
            "name": "deposit",
            "outputs": [],
            "stateMutability": "nonpayable",
            "type": "function"
        },
        {
            "inputs": [],
            "name": "emitPoolStats",
            "outputs": [],
            "stateMutability": "nonpayable",
            "type": "function"
        },
        {
            "inputs": [
                {
                    "internalType": "address",
                    "name": "user",
                    "type": "address"
                }
            ],
            "name": "getClaimableFees",
            "outputs": [
                {
                    "internalType": "uint256",
                    "name": "",
                    "type": "uint256"
                }
            ],
            "stateMutability": "view",
            "type": "function"
        },
        {
            "inputs": [],
            "name": "name",
            "outputs": [
                {
                    "internalType": "string",
                    "name": "",
                    "type": "string"
                }
            ],
            "stateMutability": "view",
            "type": "function"
        },
        {
            "inputs": [],
            "name": "owner",
            "outputs": [
                {
                    "internalType": "address",
                    "name": "",
                    "type": "address"
                }
            ],
            "stateMutability": "view",
            "type": "function"
        },
        {
            "inputs": [],
            "name": "perpMarket",
            "outputs": [
                {
                    "internalType": "address",
                    "name": "",
                    "type": "address"
                }
            ],
            "stateMutability": "view",
            "type": "function"
        },
        {
            "inputs": [
                {
                    "internalType": "address",
                    "name": "to",
                    "type": "address"
                },
                {
                    "internalType": "uint256",
                    "name": "amount",
                    "type": "uint256"
                }
            ],
            "name": "releaseTo",
            "outputs": [],
            "stateMutability": "nonpayable",
            "type": "function"
        },
        {
            "inputs": [],
            "name": "renounceOwnership",
            "outputs": [],
            "stateMutability": "nonpayable",
            "type": "function"
        },
        {
            "inputs": [
                {
                    "internalType": "uint256",
                    "name": "amount",
                    "type": "uint256"
                }
            ],
            "name": "reserve",
            "outputs": [],
            "stateMutability": "nonpayable",
            "type": "function"
        },
        {
            "inputs": [
                {
                    "internalType": "address",
                    "name": "from",
                    "type": "address"
                },
                {
                    "internalType": "uint256",
                    "name": "amount",
                    "type": "uint256"
                }
            ],
            "name": "reserveFrom",
            "outputs": [],
            "stateMutability": "nonpayable",
            "type": "function"
        },
        {
            "inputs": [],
            "name": "reservedLiquidity",
            "outputs": [
                {
                    "internalType": "uint256",
                    "name": "",
                    "type": "uint256"
                }
            ],
            "stateMutability": "view",
            "type": "function"
        },
        {
            "inputs": [
                {
                    "internalType": "address",
                    "name": "_perp",
                    "type": "address"
                }
            ],
            "name": "setPerpMarket",
            "outputs": [],
            "stateMutability": "nonpayable",
            "type": "function"
        },
        {
            "inputs": [
                {
                    "internalType": "address",
                    "name": "_vault",
                    "type": "address"
                }
            ],
            "name": "setVault",
            "outputs": [],
            "stateMutability": "nonpayable",
            "type": "function"
        },
        {
            "inputs": [],
            "name": "symbol",
            "outputs": [
                {
                    "internalType": "string",
                    "name": "",
                    "type": "string"
                }
            ],
            "stateMutability": "view",
            "type": "function"
        },
        {
            "inputs": [],
            "name": "totalFeesClaimed",
            "outputs": [
                {
                    "internalType": "uint256",
                    "name": "",
                    "type": "uint256"
                }
            ],
            "stateMutability": "view",
            "type": "function"
        },
        {
            "inputs": [],
            "name": "totalFeesCollected",
            "outputs": [
                {
                    "internalType": "uint256",
                    "name": "",
                    "type": "uint256"
                }
            ],
            "stateMutability": "view",
            "type": "function"
        },
        {
            "inputs": [],
            "name": "totalLiquidity",
            "outputs": [
                {
                    "internalType": "uint256",
                    "name": "",
                    "type": "uint256"
                }
            ],
            "stateMutability": "view",
            "type": "function"
        },
        {
            "inputs": [],
            "name": "totalSupply",
            "outputs": [
                {
                    "internalType": "uint256",
                    "name": "",
                    "type": "uint256"
                }
            ],
            "stateMutability": "view",
            "type": "function"
        },
        {
            "inputs": [
                {
                    "internalType": "address",
                    "name": "to",
                    "type": "address"
                },
                {
                    "internalType": "uint256",
                    "name": "value",
                    "type": "uint256"
                }
            ],
            "name": "transfer",
            "outputs": [
                {
                    "internalType": "bool",
                    "name": "",
                    "type": "bool"
                }
            ],
            "stateMutability": "nonpayable",
            "type": "function"
        },
        {
            "inputs": [
                {
                    "internalType": "address",
                    "name": "from",
                    "type": "address"
                },
                {
                    "internalType": "address",
                    "name": "to",
                    "type": "address"
                },
                {
                    "internalType": "uint256",
                    "name": "value",
                    "type": "uint256"
                }
            ],
            "name": "transferFrom",
            "outputs": [
                {
                    "internalType": "bool",
                    "name": "",
                    "type": "bool"
                }
            ],
            "stateMutability": "nonpayable",
            "type": "function"
        },
        {
            "inputs": [
                {
                    "internalType": "address",
                    "name": "newOwner",
                    "type": "address"
                }
            ],
            "name": "transferOwnership",
            "outputs": [],
            "stateMutability": "nonpayable",
            "type": "function"
        },
        {
            "inputs": [],
            "name": "usdc",
            "outputs": [
                {
                    "internalType": "contract IERC20",
                    "name": "",
                    "type": "address"
                }
            ],
            "stateMutability": "view",
            "type": "function"
        },
        {
            "inputs": [
                {
                    "internalType": "address",
                    "name": "",
                    "type": "address"
                }
            ],
            "name": "userFeeCheckpoint",
            "outputs": [
                {
                    "internalType": "uint256",
                    "name": "",
                    "type": "uint256"
                }
            ],
            "stateMutability": "view",
            "type": "function"
        },
        {
            "inputs": [],
            "name": "vault",
            "outputs": [
                {
                    "internalType": "address",
                    "name": "",
                    "type": "address"
                }
            ],
            "stateMutability": "view",
            "type": "function"
        },
        {
            "inputs": [
                {
                    "internalType": "uint256",
                    "name": "lpAmount",
                    "type": "uint256"
                }
            ],
            "name": "withdraw",
            "outputs": [],
            "stateMutability": "nonpayable",
            "type": "function"
        }
    ],
    "bytecode": "0x60a0604052346103ca57611a086020813803918261001c816103cf565b9384928339810103126103ca57516001600160a01b038116908190036103ca5761004660406103cf565b90601f82527f53796e74686574696320457175697479204c697175696469747920506f6f6c00602083015261007b60406103cf565b9060078252660535945512d4c560cc1b602083015233156103b45760008054336001600160a01b0319821681178355916001600160a01b03909116907f8be0079c531659141344cd1fd0a4f28419497f9722a3daafe3b4186f6b6457e09080a36001805582516001600160401b0381116102d957600554600181811c911680156103aa575b60208210146102b957601f8111610361575b506020601f82116001146102fa57819293946000926102ef575b50508160011b916000199060031b1c1916176005555b81516001600160401b0381116102d957600654600181811c911680156102cf575b60208210146102b957601f8111610254575b50602092601f82116001146101ef57928192936000926101e4575b50508160011b916000199060031b1c1916176006555b60805260405161161390816103f582396080518181816103c6015281816108d701528181610c1f01528181610d0201528181610e5e015261152b0152f35b015190503880610190565b601f198216936006600052806000209160005b86811061023c5750836001959610610223575b505050811b016006556101a6565b015160001960f88460031b161c19169055388080610215565b91926020600181928685015181550194019201610202565b60066000527ff652222313e28459528d920b65115c16c04f3efc82aaedc97be59f3f377c0d3f601f830160051c810191602084106102af575b601f0160051c01905b8181106102a35750610175565b60008155600101610296565b909150819061028d565b634e487b7160e01b600052602260045260246000fd5b90607f1690610163565b634e487b7160e01b600052604160045260246000fd5b01519050388061012c565b601f198216906005600052806000209160005b81811061034957509583600195969710610330575b505050811b01600555610142565b015160001960f88460031b161c19169055388080610322565b9192602060018192868b01518155019401920161030d565b60056000526020600020601f830160051c810191602084106103a0575b601f0160051c01905b8181106103945750610112565b60008155600101610387565b909150819061037e565b90607f1690610100565b631e4fbdf760e01b600052600060045260246000fd5b600080fd5b6040519190601f01601f191682016001600160401b038111838210176102d95760405256fe608080604052600436101561001357600080fd5b60003560e01c90816306fdde031461111f57508063082f0e82146110dc578063095ea7b31461105657806315770f921461103857806318160ddd1461101a57806323b872dd14610f2d5780632e1a7d4d14610d4d578063313ce56714610d315780633e413bee14610cec578063462bf38814610cc35780634e06bad114610b9257806360c6d8ae14610b7457806360e5dd2714610b3a5780636817031b14610af75780636a6f66e614610ad457806370a0823114610a9a578063715018a614610a415780637437535914610a1757806374522292146109ee5780637a061e3c14610883578063819b25ba146107f55780638da5cb5b146107cc57806395d89b41146106c45780639f308512146106a6578063a9059cbb14610675578063a969ff0a146105ec578063b6b55f251461038f578063c1a8f427146102d8578063d294f093146102b0578063d5387e1c14610292578063dd62ed3e14610241578063f2fde38b146101b85763fbfa77cf1461018a57600080fd5b346101b35760003660031901126101b357600d546040516001600160a01b039091168152602090f35b600080fd5b346101b35760203660031901126101b3576101d1611224565b6101d9611358565b6001600160a01b0316801561022b57600080546001600160a01b03198116831782556001600160a01b0316907f8be0079c531659141344cd1fd0a4f28419497f9722a3daafe3b4186f6b6457e09080a3005b631e4fbdf760e01b600052600060045260246000fd5b346101b35760403660031901126101b35761025a611224565b61026261123a565b6001600160a01b039182166000908152600360209081526040808320949093168252928352819020549051908152f35b346101b35760003660031901126101b3576020600a54604051908152f35b346101b35760003660031901126101b3576102c961146d565b6102d23361148f565b60018055005b346101b35760003660031901126101b3576007548061032e5760607f57dd9e9a901ac78df6ee427fbb2ec940798d5e6ca6f8c1f1495e65314e5117f99160005b60085460405192835260208301526040820152a1005b600854612710810290808204612710149015171561037957816103747f57dd9e9a901ac78df6ee427fbb2ec940798d5e6ca6f8c1f1495e65314e5117f99360609361129b565b610318565b634e487b7160e01b600052601160045260246000fd5b346101b35760203660031901126101b3576004356103ab61146d565b80156105db576040516370a0823160e01b81523360048201527f00000000000000000000000000000000000000000000000000000000000000006001600160a01b03169190602081602481865afa801561056d5782916000916105a6575b50106105955760045480610579575080915b6040516323b872dd60e01b81523360048201523060248201526044810183905290602090829060649082906000905af1801561056d57610540575b506104638160075461134b565b600755331561052a5733600090815260026020526040902054156105135761048a3361148f565b6104968260045461134b565b600455600091338352600260205260408320818154019055604051818152837fddf252ad1be2c89b69c2b068fc378daa952ba7f163c4a11628f55a4df523b3ef60203393a360405191825260208201527f73a19dd210f1a7f902193214c0ee91dd35ee5b4d920cba8d519eca65a7b488ca60403392a26001805580f35b60095433600052600b60205260406000205561048a565b63ec442f0560e01b600052600060045260246000fd5b6105619060203d602011610566575b6105598183611250565b8101906112c8565b610456565b503d61054f565b6040513d6000823e3d90fd5b61058661058f9183611288565b6007549061129b565b9161041b565b63fe7e4c3560e01b60005260046000fd5b9150506020813d6020116105d3575b816105c260209383611250565b810103126101b35781905184610409565b3d91506105b5565b631f2a200560e01b60005260046000fd5b346101b35760203660031901126101b357600c54600435906001600160a01b031633036106645780156105db576020816106497fc472cb3a7a659a876494d66b3063145f279701771d6150b9329c31611ed6405c9360075461134b565b6007556106588160095461134b565b600955604051908152a1005b630c6e168b60e31b60005260046000fd5b346101b35760403660031901126101b35761069b610691611224565b6024359033611381565b602060405160018152f35b346101b35760003660031901126101b3576020600854604051908152f35b346101b35760003660031901126101b35760405160006006548060011c906001811680156107c2575b6020831081146107ae5782855290811561078a575060011461072a575b6107268361071a81850382611250565b604051918291826111db565b0390f35b91905060066000527ff652222313e28459528d920b65115c16c04f3efc82aaedc97be59f3f377c0d3f916000905b8082106107705750909150810160200161071a61070a565b919260018160209254838588010152019101909291610758565b60ff191660208086019190915291151560051b8401909101915061071a905061070a565b634e487b7160e01b84526022600452602484fd5b91607f16916106ed565b346101b35760003660031901126101b3576000546040516001600160a01b039091168152602090f35b346101b35760203660031901126101b357600c54600435906001600160a01b031633036106645780156105db5760075461083260085480926112bb565b821161087257816108667f672216a7a59f7b075c6becc0eebb0ab5404d392281d509c1c1a4a6accd036f499360209361134b565b600855604051908152a1005b63bb55fd2760e01b60005260046000fd5b346101b35760403660031901126101b35761089c611224565b600c54602435906001600160a01b031633036106645780156105db576040516370a0823160e01b81526001600160a01b0383811660048301527f00000000000000000000000000000000000000000000000000000000000000001690602081602481855afa801561056d5783916000916109b9575b5010610595576040516323b872dd60e01b81526001600160a01b0393909316600484015230602484015260448301829052602090839060649082906000905af190811561056d577f672216a7a59f7b075c6becc0eebb0ab5404d392281d509c1c1a4a6accd036f499260209261099e575b5061098f8160075461134b565b6007556108668160085461134b565b6109b490833d8511610566576105598183611250565b610982565b9150506020813d6020116109e6575b816109d560209383611250565b810103126101b35782905185610911565b3d91506109c8565b346101b35760203660031901126101b3576102d2610a0a611224565b610a1261146d565b61148f565b346101b35760003660031901126101b3576020610a39600754600854906112bb565b604051908152f35b346101b35760003660031901126101b357610a5a611358565b600080546001600160a01b0319811682556001600160a01b03167f8be0079c531659141344cd1fd0a4f28419497f9722a3daafe3b4186f6b6457e08280a3005b346101b35760203660031901126101b3576001600160a01b03610abb611224565b1660005260026020526020604060002054604051908152f35b346101b35760203660031901126101b3576020610a39610af2611224565b6112e0565b346101b35760203660031901126101b357610b10611224565b610b18611358565b600d80546001600160a01b0319166001600160a01b0392909216919091179055005b346101b35760203660031901126101b3576001600160a01b03610b5b611224565b16600052600b6020526020604060002054604051908152f35b346101b35760003660031901126101b3576020600954604051908152f35b346101b35760403660031901126101b357610bab611224565b600c54602435906001600160a01b031633036106645780156105db57600854808211610cb25781610bdb916112bb565b600855610bea816007546112bb565b60075560405163a9059cbb60e01b81526001600160a01b038316600482015260248101829052916020838060448101038160007f00000000000000000000000000000000000000000000000000000000000000006001600160a01b03165af192831561056d577fb21fb52d5749b80f3182f8c6992236b5e5576681880914484d7f4c9b062e619e93610c95575b50604080516001600160a01b039290921682526020820192909252a1005b610cad9060203d602011610566576105598183611250565b610c77565b63a02bc79960e01b60005260046000fd5b346101b35760003660031901126101b357600c546040516001600160a01b039091168152602090f35b346101b35760003660031901126101b3576040517f00000000000000000000000000000000000000000000000000000000000000006001600160a01b03168152602090f35b346101b35760003660031901126101b357602060405160128152f35b346101b35760203660031901126101b357600435610d6961146d565b80156105db573360005260026020528060406000205410610f1c57610d8d3361148f565b600754610db3610da9610da08385611288565b6004549061129b565b91600854906112bb565b8111610872573315610f0657610dc83361148f565b60009133835260026020526040832054818110610eec57819033855260026020520360408420558060045403600455826040518281527fddf252ad1be2c89b69c2b068fc378daa952ba7f163c4a11628f55a4df523b3ef60203392a3610e30826007546112bb565b60075560405163a9059cbb60e01b815233600482015260248101839052602081604481876001600160a01b037f0000000000000000000000000000000000000000000000000000000000000000165af18015610ee157610ec4575b5060405191825260208201527f92ccf450a286a957af52509bc1c9939d1a6a481783e142e41e2499f0bb66ebc660403392a26001805580f35b610edc9060203d602011610566576105598183611250565b610e8b565b6040513d86823e3d90fd5b63391434e360e21b84523360045260245260445250606490fd5b634b637e8f60e11b600052600060045260246000fd5b6384b8f6a160e01b60005260046000fd5b346101b35760603660031901126101b357610f46611224565b610f4e61123a565b6001600160a01b0382166000818152600360209081526040808320338452909152902054909260443592916000198110610f8e575b5061069b9350611381565b838110610ffd578415610fe7573315610fd15761069b946000526003602052604060002060018060a01b0333166000526020528360406000209103905584610f83565b634a1406b160e11b600052600060045260246000fd5b63e602df0560e01b600052600060045260246000fd5b8390637dc7a0d960e11b6000523360045260245260445260646000fd5b346101b35760003660031901126101b3576020600454604051908152f35b346101b35760003660031901126101b3576020600754604051908152f35b346101b35760403660031901126101b35761106f611224565b602435903315610fe7576001600160a01b0316908115610fd157336000526003602052604060002082600052602052806040600020556040519081527f8c5be1e5ebec7d5bd14f71427d1e84f3dd0314c0f7b2291e5b200ac8c7c3b92560203392a3602060405160018152f35b346101b35760203660031901126101b3576110f5611224565b6110fd611358565b600c80546001600160a01b0319166001600160a01b0392909216919091179055005b346101b35760003660031901126101b35760006005548060011c906001811680156111d1575b6020831081146107ae5782855290811561078a5750600114611171576107268361071a81850382611250565b91905060056000527f036b6384b5eca791c62761152d0c79bb0604c104a5fb6f4eb0703f3154bb3db0916000905b8082106111b75750909150810160200161071a61070a565b91926001816020925483858801015201910190929161119f565b91607f1691611145565b91909160208152825180602083015260005b81811061120e575060409293506000838284010152601f8019910116010190565b80602080928701015160408286010152016111ed565b600435906001600160a01b03821682036101b357565b602435906001600160a01b03821682036101b357565b90601f8019910116810190811067ffffffffffffffff82111761127257604052565b634e487b7160e01b600052604160045260246000fd5b8181029291811591840414171561037957565b81156112a5570490565b634e487b7160e01b600052601260045260246000fd5b9190820391821161037957565b908160209103126101b3575180151581036101b35790565b6001600160a01b0316600081815260026020526040902054600454909182158015611343575b61133b576113389261132d6113339260095490600052600b602052604060002054906112bb565b90611288565b61129b565b90565b505050600090565b508115611306565b9190820180921161037957565b6000546001600160a01b0316330361136c57565b63118cdaa760e01b6000523360045260246000fd5b916001600160a01b038316918215610f06576001600160a01b03811693841561052a576113ad9061148f565b828403611432575b506000828152600260205260408120548281106114185791604082827fddf252ad1be2c89b69c2b068fc378daa952ba7f163c4a11628f55a4df523b3ef9587602096526002865203828220558681526002845220818154019055604051908152a3565b916064928463391434e360e21b8452600452602452604452fd5b600084815260026020526040902054156114555761144f9061148f565b386113b5565b5060095483600052600b60205260406000205561144f565b60026001541461147e576002600155565b633ee5aeb560e01b60005260046000fd5b6001600160a01b038116600081815260026020526040902054600454919291811580156115d5575b6115cf576113336114dc9285600052600b60205261132d6040600020546009546112bb565b90816114f9575b505060095490600052600b602052604060002055565b60405163a9059cbb60e01b81526001600160a01b039091166004820152602481018290526020818060448101038160007f00000000000000000000000000000000000000000000000000000000000000006001600160a01b03165af1801561056d5783927f20ca5094f3a20c321cbe4123d0f01b276b81df0fa24cd4d83d9253956035d863926020926115b4575b50611594816007546112bb565b6007556115a381600a5461134b565b600a55604051908152a238806114e3565b6115ca90833d8511610566576105598183611250565b611587565b50505050565b5080156114b756fea2646970667358221220a1d1955446046412b6799aae193c09d5e02a5cb2616633ebe8b329820de65a8e64736f6c634300081c0033",
    "linkReferences": {},
    "deployedLinkReferences": {}
}