{
  "_format": "hh-sol-artifact-1",
  "contractName": "ChainlinkManager",
  "sourceName": "contracts/ChainlinkManager.sol",
  "abi": [
    {
      "inputs": [
        {
          "internalType": "address",
          "name": "_tslaOracleManagerAddress",
          "type": "address"
        },
        {
          "internalType": "address",
          "name": "_aaplOracleManagerAddress",
          "type": "address"
        },
        {
          "internalType": "address",
          "name": "_marketStatusOraclleAddress",
          "type": "address"
        }
      ],
      "stateMutability": "nonpayable",
      "type": "constructor"
    },
    {
      "inputs": [],
      "name": "InvalidAssetType",
      "type": "error"
    },
    {
      "inputs": [
        {
          "internalType": "enum Utils.Asset",
          "name": "assetType",
          "type": "uint8"
        }
      ],
      "name": "checkIfAssetIsPaused",
      "outputs": [
        {
          "internalType": "bool",
          "name": "",
          "type": "bool"
        }
      ],
      "stateMutability": "view",
      "type": "function"
    },
    {
      "inputs": [
        {
          "internalType": "enum Utils.Asset",
          "name": "asset",
          "type": "uint8"
        }
      ],
      "name": "getDexPrice",
      "outputs": [
        {
          "internalType": "uint256",
          "name": "",
          "type": "uint256"
        }
      ],
      "stateMutability": "view",
      "type": "function"
    },
    {
      "inputs": [
        {
          "internalType": "enum Utils.Asset",
          "name": "assetType",
          "type": "uint8"
        }
      ],
      "name": "getPrice",
      "outputs": [
        {
          "internalType": "uint256",
          "name": "",
          "type": "uint256"
        }
      ],
      "stateMutability": "view",
      "type": "function"
    },
    {
      "inputs": [
        {
          "internalType": "enum Utils.Asset",
          "name": "assetType",
          "type": "uint8"
        }
      ],
      "name": "getTwapPriceofAsset",
      "outputs": [
        {
          "internalType": "uint256",
          "name": "",
          "type": "uint256"
        }
      ],
      "stateMutability": "view",
      "type": "function"
    },
    {
      "inputs": [],
      "name": "isMarketOpen",
      "outputs": [
        {
          "internalType": "bool",
          "name": "",
          "type": "bool"
        }
      ],
      "stateMutability": "view",
      "type": "function"
    }
  ],
  "bytecode": "0x60803460a257601f6105cc38819003918201601f19168301916001600160401b0383118484101760a75780849260609460405283398101031260a25760428160bd565b6056604060506020850160bd565b930160bd565b600080546001600160a01b039485166001600160a01b0319918216179091556001805493851693821693909317909255600280549190931691161790556040516104fb90816100d18239f35b600080fd5b634e487b7160e01b600052604160045260246000fd5b51906001600160a01b038216820360a25756fe6080604052600436101561001257600080fd5b60003560e01c806337f1e7f21461014657806392b1d4e114610146578063a898cf7814610116578063d4ce85f31461008a5763f33b477c1461005357600080fd5b346100855760203660031901126100855760043560028110156100855761007b602091610417565b6040519015158152f35b600080fd5b346100855760003660031901126100855760025460405163d4ce85f360e01b815290602090829060049082906001600160a01b03165afa801561010a576020916000916100dd575b506040519015158152f35b6100fd9150823d8411610103575b6100f5818361016e565b8101906103ff565b826100d2565b503d6100eb565b6040513d6000823e3d90fd5b346100855760203660031901126100855760043560028110156100855761013e602091610338565b604051908152f35b346100855760203660031901126100855760043560028110156100855761013e6020916101a6565b90601f8019910116810190811067ffffffffffffffff82111761019057604052565b634e487b7160e01b600052604160045260246000fd5b600281101561032257806102585750600154604051639b9b16f360e01b815290602090829060049082906001600160a01b03165afa90811561010a57600091610223575b50662386f26fc10000810290808204662386f26fc10000149015171561020d5790565b634e487b7160e01b600052601160045260246000fd5b906020823d602011610250575b8161023d6020938361016e565b8101031261024d575051386101ea565b80fd5b3d9150610230565b600090600103610313578054604051630e9a150360e11b81529190602090839060049082906001600160a01b03165afa9182156103065781926102ce575b50662386f26fc10000820291808304662386f26fc1000014901517156102ba575090565b634e487b7160e01b81526011600452602490fd5b9091506020813d6020116102fe575b816102ea6020938361016e565b810103126102fa57519038610296565b5080fd5b3d91506102dd565b50604051903d90823e3d90fd5b6311b2a5ab60e11b8152600490fd5b634e487b7160e01b600052602160045260246000fd5b6002811015610322578061039e5750600154604051630241154360e31b815290602090829060049082906001600160a01b03165afa90811561010a576000916102235750662386f26fc10000810290808204662386f26fc10000149015171561020d5790565b600090600103610313578054604051630241154360e31b81529190602090839060049082906001600160a01b03165afa9182156103065781926102ce5750662386f26fc10000820291808304662386f26fc1000014901517156102ba575090565b90816020910312610085575180151581036100855790565b6002811015610322578061047a57506001546040516358c3de9360e11b815290602090829060049082906001600160a01b03165afa90811561010a5760009161045e575090565b610477915060203d602011610103576100f5818361016e565b90565b6000906001036103135780546040516358c3de9360e11b815290602090829060049082906001600160a01b03165afa9182156104b9579161045e575090565b604051903d90823e3d90fdfea26469706673582212201e1276e8af26fe8de0932a7bd3785d60dff9fc1edab8c33f5dea86b165c56ea564736f6c634300081c0033",
  "linkReferences": {},
  "deployedLinkReferences": {}
}