{
  "_format": "hh-sol-artifact-1",
  "contractName": "PerpEngineZK",
  "sourceName": "contracts/PerpEngineZK.sol",
  "abi": [
    {
      "inputs": [
        {
          "internalType": "address",
          "name": "_verifier",
          "type": "address"
        },
        {
          "internalType": "address",
          "name": "_core",
          "type": "address"
        }
      ],
      "stateMutability": "nonpayable",
      "type": "constructor"
    },
    {
      "inputs": [],
      "name": "ReentrancyGuardReentrantCall",
      "type": "error"
    },
    {
      "anonymous": false,
      "inputs": [
        {
          "indexed": true,
          "internalType": "uint8",
          "name": "id",
          "type": "uint8"
        },
        {
          "indexed": false,
          "internalType": "uint256",
          "name": "premium",
          "type": "uint256"
        }
      ],
      "name": "FundingSettled",
      "type": "event"
    },
    {
      "anonymous": false,
      "inputs": [
        {
          "indexed": true,
          "internalType": "address",
          "name": "trader",
          "type": "address"
        },
        {
          "indexed": true,
          "internalType": "uint8",
          "name": "id",
          "type": "uint8"
        },
        {
          "indexed": false,
          "internalType": "int256",
          "name": "size",
          "type": "int256"
        }
      ],
      "name": "Liquidate",
      "type": "event"
    },
    {
      "anonymous": false,
      "inputs": [
        {
          "indexed": true,
          "internalType": "uint8",
          "name": "id",
          "type": "uint8"
        },
        {
          "indexed": false,
          "internalType": "int256",
          "name": "qty",
          "type": "int256"
        },
        {
          "indexed": false,
          "internalType": "int256",
          "name": "marginDelta",
          "type": "int256"
        }
      ],
      "name": "NetTrade",
      "type": "event"
    },
    {
      "anonymous": false,
      "inputs": [
        {
          "indexed": true,
          "internalType": "uint8",
          "name": "id",
          "type": "uint8"
        },
        {
          "indexed": false,
          "internalType": "bytes32",
          "name": "newRoot",
          "type": "bytes32"
        }
      ],
      "name": "RootUpdated",
      "type": "event"
    },
    {
      "inputs": [],
      "name": "FUNDING_PERIOD",
      "outputs": [
        {
          "internalType": "uint256",
          "name": "",
          "type": "uint256"
        }
      ],
      "stateMutability": "view",
      "type": "function"
    },
    {
      "inputs": [],
      "name": "MAX_PREMIUM_X18",
      "outputs": [
        {
          "internalType": "uint256",
          "name": "",
          "type": "uint256"
        }
      ],
      "stateMutability": "view",
      "type": "function"
    },
    {
      "inputs": [],
      "name": "MCR",
      "outputs": [
        {
          "internalType": "uint256",
          "name": "",
          "type": "uint256"
        }
      ],
      "stateMutability": "view",
      "type": "function"
    },
    {
      "inputs": [
        {
          "internalType": "uint8",
          "name": "",
          "type": "uint8"
        }
      ],
      "name": "asset",
      "outputs": [
        {
          "internalType": "bytes32",
          "name": "root",
          "type": "bytes32"
        },
        {
          "internalType": "int256",
          "name": "lpNetQty",
          "type": "int256"
        },
        {
          "internalType": "uint256",
          "name": "lpMargin",
          "type": "uint256"
        },
        {
          "internalType": "uint256",
          "name": "cumFunding",
          "type": "uint256"
        },
        {
          "internalType": "uint40",
          "name": "lastFundingTs",
          "type": "uint40"
        }
      ],
      "stateMutability": "view",
      "type": "function"
    },
    {
      "inputs": [],
      "name": "core",
      "outputs": [
        {
          "internalType": "address",
          "name": "",
          "type": "address"
        }
      ],
      "stateMutability": "view",
      "type": "function"
    },
    {
      "inputs": [],
      "name": "owner",
      "outputs": [
        {
          "internalType": "address",
          "name": "",
          "type": "address"
        }
      ],
      "stateMutability": "view",
      "type": "function"
    },
    {
      "inputs": [
        {
          "internalType": "uint8",
          "name": "id",
          "type": "uint8"
        },
        {
          "internalType": "uint256",
          "name": "twapPremiumX18",
          "type": "uint256"
        }
      ],
      "name": "settleFunding",
      "outputs": [],
      "stateMutability": "nonpayable",
      "type": "function"
    },
    {
      "inputs": [
        {
          "internalType": "uint8",
          "name": "id",
          "type": "uint8"
        },
        {
          "internalType": "int256",
          "name": "qty",
          "type": "int256"
        },
        {
          "internalType": "int256",
          "name": "marginDelta",
          "type": "int256"
        }
      ],
      "name": "tradeNet",
      "outputs": [],
      "stateMutability": "nonpayable",
      "type": "function"
    },
    {
      "inputs": [],
      "name": "verifier",
      "outputs": [
        {
          "internalType": "contract IVerifier",
          "name": "",
          "type": "address"
        }
      ],
      "stateMutability": "view",
      "type": "function"
    },
    {
      "inputs": [
        {
          "internalType": "uint8",
          "name": "id",
          "type": "uint8"
        },
        {
          "internalType": "bytes32",
          "name": "oldRoot",
          "type": "bytes32"
        },
        {
          "internalType": "bytes32",
          "name": "newRoot",
          "type": "bytes32"
        },
        {
          "internalType": "address",
          "name": "trader",
          "type": "address"
        },
        {
          "internalType": "int256",
          "name": "size",
          "type": "int256"
        },
        {
          "internalType": "uint256",
          "name": "margin",
          "type": "uint256"
        },
        {
          "internalType": "uint256",
          "name": "entryFunding",
          "type": "uint256"
        },
        {
          "internalType": "bytes",
          "name": "proof",
          "type": "bytes"
        }
      ],
      "name": "verifyAndLiquidate",
      "outputs": [],
      "stateMutability": "nonpayable",
      "type": "function"
    }
  ],
  "bytecode": "0x60e060405234801561001057600080fd5b5060405161167c38038061167c83398181016040528101906100329190610140565b60016000819055503373ffffffffffffffffffffffffffffffffffffffff1660c08173ffffffffffffffffffffffffffffffffffffffff16815250508173ffffffffffffffffffffffffffffffffffffffff1660808173ffffffffffffffffffffffffffffffffffffffff16815250508073ffffffffffffffffffffffffffffffffffffffff1660a08173ffffffffffffffffffffffffffffffffffffffff16815250505050610180565b600080fd5b600073ffffffffffffffffffffffffffffffffffffffff82169050919050565b600061010d826100e2565b9050919050565b61011d81610102565b811461012857600080fd5b50565b60008151905061013a81610114565b92915050565b60008060408385031215610157576101566100dd565b5b60006101658582860161012b565b92505060206101768582860161012b565b9150509250929050565b60805160a05160c0516114b86101c46000396000818161039f01526105a00152600081816104f701526105cf0152600081816101e101526107df01526114b86000f3fe608060405234801561001057600080fd5b506004361061009e5760003560e01c80638da5cb5b116100665780638da5cb5b1461014b578063e32ea4c614610169578063f2f4eb2614610187578063f90c3f27146101a5578063fc360afa146101c35761009e565b80632b7ac3f3146100a3578063342d9879146100c157806372af2eec146100f55780637658208914610111578063794e57241461012d575b600080fd5b6100ab6101df565b6040516100b89190610a57565b60405180910390f35b6100db60048036038101906100d69190610ab5565b610203565b6040516100ec959493929190610b4d565b60405180910390f35b61010f600480360381019061010a9190610bcc565b61024a565b005b61012b60048036038101906101269190610c38565b61039d565b005b610135610592565b6040516101429190610c8b565b60405180910390f35b61015361059e565b6040516101609190610cc7565b60405180910390f35b6101716105c2565b60405161017e9190610c8b565b60405180910390f35b61018f6105cd565b60405161019c9190610cc7565b60405180910390f35b6101ad6105f1565b6040516101ba9190610c8b565b60405180910390f35b6101dd60048036038101906101d89190610d9f565b6105f7565b005b7f000000000000000000000000000000000000000000000000000000000000000081565b60016020528060005260406000206000915090508060000154908060010154908060020154908060030154908060040160009054906101000a900464ffffffffff16905085565b66b1a2bc2ec50000811115610294576040517f08c379a000000000000000000000000000000000000000000000000000000000815260040161028b90610ed2565b60405180910390fd5b6000600160008460ff1660ff1681526020019081526020016000209050610e108160040160009054906101000a900464ffffffffff1664ffffffffff166102db9190610f21565b42101561031d576040517f08c379a000000000000000000000000000000000000000000000000000000000815260040161031490610fa1565b60405180910390fd5b818160030160008282546103319190610f21565b92505081905550428160040160006101000a81548164ffffffffff021916908364ffffffffff1602179055508260ff167f5559a8c41eb4f855103e2d0e8a842d0841be7ebfa79d5825ac44b858ac3c116e836040516103909190610c8b565b60405180910390a2505050565b7f000000000000000000000000000000000000000000000000000000000000000073ffffffffffffffffffffffffffffffffffffffff163373ffffffffffffffffffffffffffffffffffffffff161461042b576040517f08c379a00000000000000000000000000000000000000000000000000000000081526004016104229061100d565b60405180910390fd5b610433610966565b6000600160008560ff1660ff168152602001908152602001600020905082816001016000828254610464919061102d565b925050819055506000821261049357818160020160008282546104879190610f21565b925050819055506104b8565b8161049d90611071565b8160020160008282546104b091906110b9565b925050819055505b8360ff167f19ea7dc80784e47372a73434156b240821a899dc169ecb8e18efef4da454eb7f84846040516104ed9291906110ed565b60405180910390a27f000000000000000000000000000000000000000000000000000000000000000073ffffffffffffffffffffffffffffffffffffffff1663546cc2b68585856040518463ffffffff1660e01b815260040161055293929190611125565b600060405180830381600087803b15801561056c57600080fd5b505af1158015610580573d6000803e3d6000fd5b505050505061058d6109ac565b505050565b6756bc75e2d631000081565b7f000000000000000000000000000000000000000000000000000000000000000081565b66b1a2bc2ec5000081565b7f000000000000000000000000000000000000000000000000000000000000000081565b610e1081565b6105ff610966565b6000600160008b60ff1660ff168152602001908152602001600020905088816000015414610662576040517f08c379a0000000000000000000000000000000000000000000000000000000008152600401610659906111a8565b60405180910390fd5b61066a6109b6565b8960001c81600060068110610682576106816111c8565b5b6020020181815250508860001c816001600681106106a3576106a26111c8565b5b602002018181525050600087126106ba57866106c5565b866106c490611071565b5b816002600681106106d9576106d86111c8565b5b60200201818152505085816003600681106106f7576106f66111c8565b5b6020020181815250508481600460068110610715576107146111c8565b5b602002018181525050816003015481600560068110610737576107366111c8565b5b6020020181815250506000600667ffffffffffffffff81111561075d5761075c6111f7565b5b60405190808252806020026020018201604052801561078b5781602001602082028036833780820191505090505b50905060005b60068110156107dc578281600681106107ad576107ac6111c8565b5b60200201518282815181106107c5576107c46111c8565b5b602002602001018181525050806001019050610791565b507f000000000000000000000000000000000000000000000000000000000000000073ffffffffffffffffffffffffffffffffffffffff16639649daae8686846040518463ffffffff1660e01b815260040161083a93929190611342565b602060405180830381865afa158015610857573d6000803e3d6000fd5b505050506040513d601f19601f8201168201806040525081019061087b91906113b3565b6108ba576040517f08c379a00000000000000000000000000000000000000000000000000000000081526004016108b19061142c565b60405180910390fd5b8983600001819055508b60ff167fd1ddc73765ab080812eb542c0eed5e3c5406c0e20f789da1215a8ea9cc14404f8b6040516108f6919061144c565b60405180910390a28b60ff168973ffffffffffffffffffffffffffffffffffffffff167ffba3571e4dacfda80affe7ce847364571670e14ec7151a038a37b5bf5acf879c8a6040516109489190611467565b60405180910390a350505061095b6109ac565b505050505050505050565b6002600054036109a2576040517f3ee5aeb500000000000000000000000000000000000000000000000000000000815260040160405180910390fd5b6002600081905550565b6001600081905550565b6040518060c00160405280600690602082028036833780820191505090505090565b600073ffffffffffffffffffffffffffffffffffffffff82169050919050565b6000819050919050565b6000610a1d610a18610a13846109d8565b6109f8565b6109d8565b9050919050565b6000610a2f82610a02565b9050919050565b6000610a4182610a24565b9050919050565b610a5181610a36565b82525050565b6000602082019050610a6c6000830184610a48565b92915050565b600080fd5b600080fd5b600060ff82169050919050565b610a9281610a7c565b8114610a9d57600080fd5b50565b600081359050610aaf81610a89565b92915050565b600060208284031215610acb57610aca610a72565b5b6000610ad984828501610aa0565b91505092915050565b6000819050919050565b610af581610ae2565b82525050565b6000819050919050565b610b0e81610afb565b82525050565b6000819050919050565b610b2781610b14565b82525050565b600064ffffffffff82169050919050565b610b4781610b2d565b82525050565b600060a082019050610b626000830188610aec565b610b6f6020830187610b05565b610b7c6040830186610b1e565b610b896060830185610b1e565b610b966080830184610b3e565b9695505050505050565b610ba981610b14565b8114610bb457600080fd5b50565b600081359050610bc681610ba0565b92915050565b60008060408385031215610be357610be2610a72565b5b6000610bf185828601610aa0565b9250506020610c0285828601610bb7565b9150509250929050565b610c1581610afb565b8114610c2057600080fd5b50565b600081359050610c3281610c0c565b92915050565b600080600060608486031215610c5157610c50610a72565b5b6000610c5f86828701610aa0565b9350506020610c7086828701610c23565b9250506040610c8186828701610c23565b9150509250925092565b6000602082019050610ca06000830184610b1e565b92915050565b6000610cb1826109d8565b9050919050565b610cc181610ca6565b82525050565b6000602082019050610cdc6000830184610cb8565b92915050565b610ceb81610ae2565b8114610cf657600080fd5b50565b600081359050610d0881610ce2565b92915050565b610d1781610ca6565b8114610d2257600080fd5b50565b600081359050610d3481610d0e565b92915050565b600080fd5b600080fd5b600080fd5b60008083601f840112610d5f57610d5e610d3a565b5b8235905067ffffffffffffffff811115610d7c57610d7b610d3f565b5b602083019150836001820283011115610d9857610d97610d44565b5b9250929050565b60008060008060008060008060006101008a8c031215610dc257610dc1610a72565b5b6000610dd08c828d01610aa0565b9950506020610de18c828d01610cf9565b9850506040610df28c828d01610cf9565b9750506060610e038c828d01610d25565b9650506080610e148c828d01610c23565b95505060a0610e258c828d01610bb7565b94505060c0610e368c828d01610bb7565b93505060e08a013567ffffffffffffffff811115610e5757610e56610a77565b5b610e638c828d01610d49565b92509250509295985092959850929598565b600082825260208201905092915050565b7f7072656d69756d20746f6f206869676800000000000000000000000000000000600082015250565b6000610ebc601083610e75565b9150610ec782610e86565b602082019050919050565b60006020820190508181036000830152610eeb81610eaf565b9050919050565b7f4e487b7100000000000000000000000000000000000000000000000000000000600052601160045260246000fd5b6000610f2c82610b14565b9150610f3783610b14565b9250828201905080821115610f4f57610f4e610ef2565b5b92915050565b7f746f6f20736f6f6e000000000000000000000000000000000000000000000000600082015250565b6000610f8b600883610e75565b9150610f9682610f55565b602082019050919050565b60006020820190508181036000830152610fba81610f7e565b9050919050565b7f6e6f74206f776e65720000000000000000000000000000000000000000000000600082015250565b6000610ff7600983610e75565b915061100282610fc1565b602082019050919050565b6000602082019050818103600083015261102681610fea565b9050919050565b600061103882610afb565b915061104383610afb565b92508282019050828112156000831216838212600084121516171561106b5761106a610ef2565b5b92915050565b600061107c82610afb565b91507f800000000000000000000000000000000000000000000000000000000000000082036110ae576110ad610ef2565b5b816000039050919050565b60006110c482610b14565b91506110cf83610b14565b92508282039050818111156110e7576110e6610ef2565b5b92915050565b60006040820190506111026000830185610b05565b61110f6020830184610b05565b9392505050565b61111f81610a7c565b82525050565b600060608201905061113a6000830186611116565b6111476020830185610b05565b6111546040830184610b05565b949350505050565b7f7374616c6520726f6f7400000000000000000000000000000000000000000000600082015250565b6000611192600a83610e75565b915061119d8261115c565b602082019050919050565b600060208201905081810360008301526111c181611185565b9050919050565b7f4e487b7100000000000000000000000000000000000000000000000000000000600052603260045260246000fd5b7f4e487b7100000000000000000000000000000000000000000000000000000000600052604160045260246000fd5b600082825260208201905092915050565b82818337600083830152505050565b6000601f19601f8301169050919050565b60006112638385611226565b9350611270838584611237565b61127983611246565b840190509392505050565b600081519050919050565b600082825260208201905092915050565b6000819050602082019050919050565b6112b981610b14565b82525050565b60006112cb83836112b0565b60208301905092915050565b6000602082019050919050565b60006112ef82611284565b6112f9818561128f565b9350611304836112a0565b8060005b8381101561133557815161131c88826112bf565b9750611327836112d7565b925050600181019050611308565b5085935050505092915050565b6000604082019050818103600083015261135d818587611257565b9050818103602083015261137181846112e4565b9050949350505050565b60008115159050919050565b6113908161137b565b811461139b57600080fd5b50565b6000815190506113ad81611387565b92915050565b6000602082840312156113c9576113c8610a72565b5b60006113d78482850161139e565b91505092915050565b7f696e76616c69642070726f6f6600000000000000000000000000000000000000600082015250565b6000611416600d83610e75565b9150611421826113e0565b602082019050919050565b6000602082019050818103600083015261144581611409565b9050919050565b60006020820190506114616000830184610aec565b92915050565b600060208201905061147c6000830184610b05565b9291505056fea2646970667358221220b51dedeb5599c7796a940ebc514839bedfed0688b70497d5dfcc4b4db2b3504b64736f6c634300081c0033",
  "linkReferences": {},
  "deployedLinkReferences": {}
}